:020000040800F2
:2000000018080020010100080B0A0008E1080008090A00089F010008B917000800000000ED
:20002000000000000000000000000000A10C00083506000800000000890B0008190100080A
:200040001B0100081B0100081B0100081B0100081B0100081B0100081B0100081B01000880
:200060001B0100081B0100081B0100081B0100081B0100081B0100081B0100081B01000860
:200080001B0100081B0100081B0100081B010008091700081B0100081B0100081B0100083C
:2000A0001B0100081B0100081B0100081B0100081B0100081B0100081B0100081B01000820
:2000C0001B0100081B0100081B0100081B0100081B0100081B0100081B0100081B01000800
:2000E0001B0100081B0100081B010008DFF80CD000F018F800480047E9170008180800200A
:200100000648804706480047FEE7FEE7FEE7FEE7FEE7FEE7FEE7FEE7FEE7FEE761140008C6
:20012000ED000008064C074D06E0E06840F0010394E8070098471034AC42F6D3FFF7DAFF96
:20014000FC1800081C19000870B58C1810F8015B15F0070301D110F8013B2A1106D110F8DA
:20016000012B03E010F8016B01F8016B5B1EF9D12B0705D40023521E0DD401F8013BFAE7BF
:2001800010F8013BCB1A921C03E013F8015B01F8015B521EF9D5A142D8D3002070BDFEE7EB
:2001A00040BA70472DE9F84F684C4B4E4B4F4E4DDFF830B1002043F63F784AF2A00948F6C4
:2001C0000F7AADF80200606C3080000458BFBDE8F88F308810F00F00387028D054F8201049
:2001E000ADF80210BDF90210B1F1FF3F0DDC54F8201040F68F72114044F820103849387816
:2002000001EB800050F8040C8047BDF802000006D9D5387854F8201001EA0A0144F820105A
:2002200038780BEB800050F8040C8047CBE720682880288800F030006880288800F44050AB
:200240002880206800EA080080EA0900206031882068C90612D5ADF80200BDF8020000052F
:2002600013D4BDF90200B0F1FF3FACDC206840F68F710840206000F001FC0DE048F60F715A
:200280000840206000F050FB06E0206840F68F710840206000F0D8FD20684BF6BF710840E9
:2002A0002988C90448BF80F480502988890448BF80F400506988C90648BF80F01000698834
:2002C000890648BF80F0200048F28001084380B22060BDE8F88F00BF9A0100200002002078
:2002E0007401002058010020DC010020174951F82020520458BF704751F8202040F60F73A5
:200300001A404CF280031A4341F82020704700BF0E4951F82020520658BF704751F82020E7
:2003200040F60F731A4048F2C0031A4341F82020704700BF054940F60F6351F820201A4089
:2003400048F280031A4341F820207047005C0040B0B50C46054600F033FB0849002009E03D
:2003600015F8012B013C424080B2D2B231F8122082EA1020002CF3D180B2B0BD1402002013
:2003800010B5A74909688A8812B10224204610BD0A78062802F07F0208BF012A0AD0212ACF
:2003A000F3D103280DD00928EFD10B48092202700A4A09E08878212805D02228E5D1084AE3
:2003C00002E0044A00E0074A002400204C828A619047DBE70D0400080A0200203D05000897
:2003E0002104000801040008014900F01BBF00BF00000020014900F015BF00BFD40000200F
:20040000014900F00FBF00BF4400002008B11948704783480121006801820020704700BF72
:20042000014900F0FFBE00BF680000207C490968C978032984BF00207047024A02EBC101C6
:2004400000F0F0BE10010020084318BF02207047014602200B290BD1714909680A7802F0BA
:200460007F02212A18BF7047C878024908600020704700BF0402002010B569480021006874
:2004800041812649C9794172002000F00BFC00204FF4007100F0B4FC0020102100F08CFCE2
:2004A0000020182100F020FC0020582100F06CFC0020FFF73FFF1A4890F82C10002000F05C
:2004C0001FFC002000F054FC01204FF4C061012400F096FC01204FF4807100F055FC0120BE
:2004E0004FF4827100F000FC0120002100F058FC0120402100F004FC01204FF4405100F0FD
:200500001FFC0120202100F057FC002000F0D0FB184804604D48047010BD00BF08000020BF
:20052000DC0000203E480068807A10B111480521016070470F4804210160704708B10448E6
:20054000704737480221006801820020704700BF080200207047704710B500F0A7F930485C
:2005600000240068847200F031FB01F0CFF80148046010BD100200202DE9F843DFF8588E6B
:20058000D8F80060378ABFB9304610F8081F042912D126490A78012A3AD1C34A244C13681E
:2005A00004EA43031A440023C2F8B4330B701D4930220A8004212FE0B58ABD422C4688BFFD
:2005C0003C46B169204688478146002000F062F901464846224601F0F1F80020214600F08A
:2005E000DFFB308A3021AF42A0EB04003082708A204470820B4801800B484FF44051018018
:200600004FF0040188BF0221D8F80000083003E0044910220A8007210170BDE8F88300BFC0
:20062000B4010020DE010020DC010020AC010020FEFF0100704701E000BF01380028FBD19A
:200640007047000001480121017070470E0100202DE9F04792B002AC0120214601F062F811
:200660009DF808004C4E4FF400580428C6F8048040F085809DF809009DF80A1041EA002568
:200680001DB3464F78883978E9B3002800F08180C5EB05118900814235D24148B1460F18CF
:2006A00000F0D2F8002005E0A119B819898800F0ADF8B01CC6B23B2EF6D900F0A1F8681CC1
:2006C0004E4681B200294DD159E0BDF80C103348BDF80E20B1F5604F4180828040D8012152
:2006E000017000F0B1F82E4D002405E060193C3000F068F804F58064B4F5604FF6D100F04B
:200700007FF801212EE03978C9B3C0B32449C5EB0510B1468A4601EB800500F095F800208B
:2007200005E0A119A819898800F070F8B01CC6B23C2EF6D300F064F879880AF13C00FFF7FF
:2007400007FEBA884FF2020100284E460AD0824208D100204FF4704138700120787001E035
:200760004FF2010104208DF80500080A8DF8071003218DF806000DF1050000F0E9FE012030
:200780004FF44051C6F8008000F0DAFA12B0BDE8F0873878F3E700BF10100140900100204A
:2007A000C41F000810B50548054944680860006801F016F82046BDE81040004700200008A9
:2007C00008ED00E01F4951F8042CD207FBD10A6841F6FE731A400A600A6842F002020A60CE
:2007E0004860086840F04000086051F8040CC007FBD1086841F6FD72104008600420704774
:200800001048016841F08001016070470D4A52F8043CDB07FBD1D2F800C041F6FD7303EAA0
:200820000C031360136843F001031360018052F8040CC007FBD1106841F6FE7108401060CD
:200840000420704710200240044805490160054901608168C907FCD1704700BF042002403F
:2008600023016745AB89EFCDBC490A6892B202EBC00001EB4000B0F8B8037047B7490A6898
:2008800092B202EBC00001EB4000D0F8BC036FF39F207047B1490A6892B202EBC00001EB93
:2008A0004000B0F8B0037047505C00400A4908688A68801808BF7047B0B5084D4C68082297
:2008C000A91C00F061F805F1120120460422BDE8B04000F059B800BFE8F7FF1F940000206F
:2008E000FEE700000D48016841F0180101600C48016821F480610160016841F40061016036
:20090000C16821F00401C16006490A6842F440120A60416841F440314160704718100240B3
:20092000000C01400410014010B5A54C2168084610F8082F022A03D0062A07D0042A12D132
:20094000FFF71AFE206810F8081F0DE04878052804BF08785FEA40600BD07F4800688068DA
:2009600080472068083008210170BDE8104000F00DB9C87800F09CF902480068006A804703
:20098000EBE700BFBC01002010B501314FF0000C4FF0370E10E00EEB1073040FB0F1204F94
:2009A00081F800C0A2F101024FEA001038BF04F1300301F8013C0231002AECD110BD0000E3
:2009C000B0B5DFF840C04FF0000E4AF20101BEF5807F08BFB0BD1FFA8EF30022002009E0A5
:2009E00083EA020581EA520401305B08ED0708BF540822460828F3D32CF81E200EF1010E49
:200A0000E5E700BF14020020FEE7704770470000C2781449D2B110B5174A0723126890F856
:200A200001E0847890F800C023EA12220F23D340C2F1040223400EFA02F21A4301EB0C039B
:200A4000120183F80023BDE8104000E080310078012300F01F02C0F3421003FA02F241F883
:200A60002020704700E100E00249084302490860704700BF0000FA050CED00E0F8B5504EDC
:200A80003768384610F8081F032903D0072929D005292DD1388AB8B1B969A9B1BC8A844203
:200AA00088BF0446204688470546388A001B3882788A204478820020FFF7D6FE014628468F
:200AC000224600F04FF8388AA0B13E484FF4405101800020002100F063F93B4830210180A7
:200AE000398A08E01C480068C06880473068083008210CE00021BA8A3068914204D20830CD
:200B000051B10521017002E0032100F8081F0170BDE8F84000F03AB8062101700E48006891
:200B200080688047306810F8081F082907D125494FF480520A80244910220A80D8E79D4A5A
:200B4000074C136804EA43031A440023C2F8B4331D4A30231380DAE7B8010020505C00409E
:200B6000FEFF0100074B013203EB41010023A3EB520203E008C9013220F8023B002AF9D18D
:200B8000704700BF006000407047000080B50B4890F82C10002000F0B3F809480068007A4E
:200BA000082806D107494FF480520A80064910220A800938B0FA80F0400980BDDC00002057
:200BC000B4010020DC010020DE010020B0B5334C0120074D2060002028802060606800203B
:200BE00000F01CF94FF4E050288020600020B0BD1404002007281CBF2749087026480178B7
:200C000005293AD8DFE801F0030714181F2A416851B3052132E021494FF6FB730A681A408F
:200C20000A604FF43F420A6004210170012130E002214170032121E04178013941704178FE
:200C400089B904211AE015490A6842F0100292B20A60052101700A21417070474178013954
:200C60004170417861B170470C494FF6FB730A681A400A604FF43F420A6006210170704786
:200C800006494FF6EF730A681A400A600621017000214160704700BFA4010020405C0040B7
:200CA00070470000434920F007000860704700BF10B50C49584A002340F60F7C48F2800E94
:200CC000097809E052F8234004EA0C041C4344EA0E0442F8234001339942F3D140F0800040
:200CE000D06410BD0C010020324A21F0010113689BB203EBC00002EB4000C0F8B81370475A
:200D00002C4A3F29136802F56F729BB203EBC0000DD3CB064FF0FF3C4FEA511308BF0CEB21
:200D2000511399B24FF4004343EA812104E001F0010303EB5101890242F81010704700BF3B
:200D400010B5F74C44F2700254F8203023EA0202CB0448BF82F48052890448BF82F40052BC
:200D600048F28001114389B244F8201010BD00BFEB4943F60F7351F820201A404BF280039F
:200D80005A4041F8202070470A4A21F0010113689BB203EBC00002EB4000C0F8B01370474D
:200DA000044A13689BB203EBC00002EB4000C0F8B4137047505C004010B5D94C47F24002BB
:200DC00054F8203023EA0202CB0648BF82F01002890648BF82F0200248F28001114389B296
:200DE00044F8201010BD00BFCD4940F63F7351F820201A4048F2B0035A4041F82020704763
:200E000010B5C74C48F68F1254F820301A40114344F8201010BD00BF005C0040014908608B
:200E2000704700BF445C004005480422016841F0040101600348016862F313410160704774
:200E400018100240040801402DE9FC41EB4EDFF88885B44FB44D306DD8F800100A7A092A33
:200E600001D1C8881EE007EA40002844D0F8070007EA40008219441992F800240A70425DF6
:200E80004A70B4F80300FFF78BF9D8F800104880B4F80700FFF784F9D8F800108880B4F80D
:200EA0000B00C880012200280A724C7827D0620842EAC412D2B2052A00F2D880DFE802F03B
:200EC00003D6D63F4F55022840F0D0804888002840F0CC800879002840F0C880087800F0D1
:200EE0007F00022800F0A680012800F0B880002840F0BC808888002840F0B880C8E0087886
:200F000000F07F0002284CD0012851D000286CD1601E082869D8DFE800F0056853685B68DC
:200F200068686500C87801285FD1888800285CD1487A800659D582480021416035E00878E7
:200F4000400640F093808878032869D002286BD0012840F08B80754800681C3067E00878A3
:200F6000400640F08380734A93E00A7802F07F02012A7BD18A7A002A78D04A88002A75D1A4
:200F8000012873D10879002870D14879674909688A6900219047002868D1D8F80010644A3E
:200FA00077E0032C09D0012C1FD100F0CDF81BE00B2C1AD100F0F0F916E000F0B3F913E085
:200FC000C878012811D1888878B900F09DF916E091F90300002810DB887870B9888860B917
:200FE000887A09E000F07AF948B15048006841692046884703280ED008B108200CE0306D58
:20100000002107EA40002844C0F803104D4830210180062000E00920D8F8001008724CE02B
:2010200042480068243002E040480068203002687ABB1BE04F7907F00F033A0656F823002C
:201040004FF0300258BF4FF4405217F0700F0DD1D04F3F78BB4209D2104019D106E0487940
:20106000DE4909688A690021904760B1DB49D8F800000968407809698847044603280DD12B
:20108000D8F8000017E0D8F80010887A0028EDD0294A002000248A614C829047D8F80000AB
:2010A0004FF6FF72018A914205D0022C18BF002907D1082100E009210172BDE8FC41FFF7C3
:2010C00065BD90F90020B2F1FF3F06DD032101721A484FF440510180EFE7C2880192019BE4
:2010E0008B4202D20199018212E0914210D2BB4A126892F82C20914202D21149002206E02D
:20110000B1FBF2F303FB121111B90D4901220A70B249096891F82C108182FFF72DFACCE75C
:20112000005C0040FEFF010001600040B8010020411200080512000861120008DC010020A9
:20114000AC010020DE010020F8B5A3480168087800F07F00022806D048B9487A00F0DF0041
:201160004872002004E0488808B9087910B1022001B0F0BD4879864F4FF4405500F07F047D
:2011800010F08002834857F8243018BF302506780220B442ECD22B40EAD0887A0028E6D0DA
:2011A00057F824005AB100F03000102821D12046FFF7AEF820463021FFF7FEFD19E000F4D0
:2011C0004050B0F5805F14D11CB12046FFF78EF805E00B4890F82C102046FFF791FD57F832
:2011E000240043F60F7108404BF28001484047F824007B48006840698047B2E7005C004051
:20120000DC00002040B180B57548006800688047714800680A3080BD6F48012100680182FC
:20122000002070476C4A002813685A8A02D00868104470478888801A18820020704700BF73
:2012400040B180B56648006880688047624800680C3080BD6048012100680182002070478C
:2012600010B55D490028096814D01B4C00202080087800F07F00022810D0012824D058B938
:20128000487A022101EA1011C0F3801008441249087015E002200882002415E091F90510A2
:2012A0003B4A01F00F00B1F1FF3F52F820000DDD00F44050B0F5805F02D1074801210170B8
:2012C0004748006800698047204610BD00F030001028F2D0F4E700BF0C0200203E482D4AD5
:2012E00000685278C178914203D882780AB982880AB10220704780B58172394800684068C1
:201300008047002080BD00BF80B533480068417A41F02001417232480068C0698047002020
:2013200080BD00BFB0B52C48F34D1A4C0368587900F07F0155F821202478A14226D210F081
:20134000800C4FF440544FF0020018BF302414421BD05A88CAB9987AC0B143F60F70BCF130
:20136000000F18BF40F63F7055F8212000EA020049F2800218BF48F29002504045F82100DA
:2013800017480068806980470020B0BD0220B0BD005C00400C01002010B5104A0E4C1268FE
:2013A0002068C1784079926990470146022091B921688A7A7AB1087908B9887808B1022059
:2013C00010BD07480068C06880472068C1784279C2720173002010BDB4010020B8010020DB
:2013E000BC01002080B5F148DFF870E00023D0F800C007E000EB830252F8402C92B24EF839
:2014000023200133082BF5D14CF4806292B202604FF6FE320CEA020C0CF2014303600CF575
:201420008063036043685B05FCD54FF6FF334360002307E05EF8231000EB8302013389B2FE
:2014400042F8401C082BF5D14CF481610160016841F0040189B2016080BD00BFE001002042
:2014600082B03648364A016841F00101016041681140344A4160016811400160016821F48D
:2014800080210160416821F4FE0141604FF41F018160002101910091016841F480310160B4
:2014A000016801F400310091019901310191009919B90199B1F5A06FF2D10168890354BF29
:2014C0000021012100910099012930D11E490A6842F010020A600A6822F003020A600A6888
:2014E00042F002020A604168416041684160416841F480614160416821F47C1141604168C3
:2015000041F4E8114160016841F08071016001688901FCD5416821F003014160416841F013
:2015200002014160416801F00C010829FAD107484FF00061016002B0704700BF001002409A
:201540000000FFF8FFFFF6FE0020024008ED00E010B5094C0A460146207858B10748006862
:20156000052807D1812000F0EFF80120FFF73CFC0020207010BD00BF0E0100201002002002
:2015800080B5FFF751FC00F019F8C748016841F400010160BDE88040AFF3008005480221CC
:2015A000054A0175564900F10C03C0E90031826008680047B401002030010020E0B54FF456
:2015C000A060FFF751FA0348019001A8FFF720FA8CBD00BF1401000170B588B0464D474C94
:2015E0004F4E686C6080308861880140090402D5FEF7D8FD308861880140490506D54FF6BA
:20160000FF3068643E4840688047308861880140890444BF4DF6FF71696461880140C904F1
:2016200006D54EF6FF7068640020FFF7E3FA30886188014009050CD53248007810B1FFF7E3
:20164000D1FE02E00220FFF7D5FA4FF2FF706864308861880140890505D54FF6FF516964CA
:2016600021780131217061880840C00541D54FF6FF606864A86C000402D40020606035E0AF
:20168000606801306060606804282FD3286C00072CD4286C002180B2A060684605E055F839
:2016A000212092B240F8212001310829F7D1A16841F00101A160A16889B22964A16821F0D9
:2016C0000101A160A16889B22964696C4905FCD54FF6FF316964002105E050F8212092B22D
:2016E00045F8212001310829F7D1C6E70720FFF781FA08B070BD00BF005C00409801002003
:20170000DC00002054010020FFF766BF274800214FF43F42416002490A800260002070473A
:201720001404002070B500F07F050C462846FFF7A5F806462846FFF797F801462046324621
:20174000FFF710FA304670BD70B500F07F0614460D463046FFF79EF8A4B20146284622462A
:2017600000F02CF830462146FFF71AFB002070BD0D484FF48011072301600C480021416056
:20178000032101600A48016841F00401016009490A6863F313420A604FF480520A61416870
:2017A00021F400014160704780E100E0405C00401810024004080140FEE70000074B01327D
:2017C00003EB41010023A3EB520204E030F8023B013221F8043B002AF8D1704700600040B6
:2017E00080F3088870470000FFF77CF86420FEF722FF2D482D4B2E4A016841F0C0510160BA
:20180000D15A91B1176847F4807717600027D752136823F480731360026822F0C0520260FB
:2018200044F24C20814204D111E0016821F0C051016020480068400709D41F481F49006866
:201840000840B0F1005F02D1FEF7ACFFFEE7FFF797FE1E481A4D1E4C164E4FF400594FF4E3
:20186000805780461B4882461B488346287860B91448C0F800901448F760FEF7DCFE40460F
:20188000C6F80894B760FEF7D6FE20780028EDD05046FEF7D0FEFFF76BFF5846FEF7CBFE7C
:2018A000FEF780FFE2E700BF1C10024010FCFFFF00700040080C0140002000080000FE2F5A
:2018C000900100201410014020A107008096980091010020A086010040420F0002E008C860
:2018E000121F08C1002AFAD170477047002001E001C1121F002AFBD17047000020190008A9
:20190000000000209001000048010008281A00089001002088060000EC1800080000000030
:2019200022083320291409022913010125807D09042B02031214211001140122191607057B
:201940008103401D010705010714101201320216408304BABE1602010203011A1A443209FF
:20196000101005010904A1018504090675089502811B090708133F9132C01A4C2432191078
:20198000080403090420034612721A6502124A126F127912201246126C126112731A6814BF
:2019A0001272141A03531254124D1233F2325A261A12691A63281A6F2E1A6C0412633A74D3
:2019C0000E3A6E1812731A316C3212135905140879041B0855081A57041381031B0851109F
:2019E0001A49041AF50C1AE9041A2D0C413240140201011A703C32041AAE0832261A740886
:201A000032201A940819E811130D0A1B08254C29080912041A351C32010B184506240A194B
:201A2000511C000000000000FFFFFFFFFFFFFFFFFFFFFFFFFFFFFFFFFFFFFFFFFFFFFFFF51
:201A4000FFFFFFFFFFFFFFFFFFFFFFFFFFFFFFFFFFFFFFFFFFFFFFFFFFFFFFFFFFFFFFFFA6
:201A6000FFFFFFFFFFFFFFFFFFFFFFFFFFFFFFFFFFFFFFFFFFFFFFFFFFFFFFFFFFFFFFFF86
:201A8000FFFFFFFFFFFFFFFFFFFFFFFFFFFFFFFFFFFFFFFFFFFFFFFFFFFFFFFFFFFFFFFF66
:201AA000FFFFFFFFFFFFFFFFFFFFFFFFFFFFFFFFFFFFFFFFFFFFFFFFFFFFFFFFFFFFFFFF46
:020000040800F2
:202000004028002001210008B7720008355E0008B5720008C33B0008379700080000000037
:20202000000000000000000000000000D9800008414B000800000000E1740008558C000865
:202040001B2100081B2100081B2100081B2100081B2100081B2100081B2100081B21000860
:202060001B2100081B2100081B2100081B210008A5440008E14500081B2100081B210008A9
:202080001B2100081B2100081B2100081B210008B59600081B2100081B2100081B21000811
:2020A0001B2100081B2100081B2100081B210008018D00081B2100081B2100081B210008AE
:2020C000395E00081B2100081B2100081B2100081B2100081B2100081B2100081B21000885
:2020E0001B2100081B2100081B210008DFF80CD000F034FB00480047D59C000840280020B2
:202100000648804706480047FEE7FEE7FEE7FEE7FEE7FEE7FEE7FEE7FEE7FEE7B18C0008DE
:20212000ED20000840EA01039B0703D009E008C9121F08C0042AFAD203E011F8013B00F81A
:20214000013B521EF9D27047D2B201E000F8012B491EFBD270470022F6E710B513460A4670
:2021600004461946FFF7F0FF204610BD10B5002200E0521C835C8C5CA34201D1002BF8D1F7
:20218000D8B2E1B2401A10BD034611F8012B00F8012B002AF9D118467047F0B480EA01023F
:2021A000D40F4200B2EB410F02D20246084611464A0042D0C30DDDB2C1F3C752AD1A202DB0
:2021C00035DAC1F3160141F4000204B15242C5F1200602FA06F12A411044B3EBD05F23D057
:2021E000C4B1012DA0EBC35009DCF0BC4FF0004202EAC352DBB200F5000000F023BA4000FC
:2022000000F1807000EBC350A0F1807040EAD170490009E0490841EAC071A0EBC35000F581
:202220000000400800EBC350F0BC00F002BA6142012202EB4101001BF6E7F0BC704781F03F
:202240000041AAE780F00040A7E780EA010210B502F00043400022D04A001FD0010E01EBA1
:202260001261C0F35600C2F3560240F4000042F40002A0FB022000047F39140400D0401CAC
:2022800050EA124001D44000491EC2B20C0604EBD010401C4008802A02D003E0002010BDF1
:2022A00020F00100002900DA0020184310BD30B480EA010202F0004530F0004221F0004087
:2022C00013D090B1C30DD40DC2F31601C0F31600E41A41F4000140F400027D34914201D3D2
:2022E000641C00E04900002C02DA30BC002070474FF400000023914201D3891A034340082C
:202300004FEA4101F7D151B1914202D14FF0004105E002D24FF0010101E06FF0010103EB28
:20232000C450284430BC00F084B92DE9FE4F81EA030404F0004421F0004100944FF0000BC7
:2023400023F0004350EA01045ED052EA03045BD0C3F30A54C1F30A552C44A4F2F334019463
:20236000A0FB0254C1F3130141F48011C3F3130343F4801301FB024400FB034E840A970A8B
:2023800044EA815447EA8357A4FB076802958D0A05FB07854FEA932C04FB0C542705029D45
:2023A0004FEA065847EA1637B5EB08056EEB070C870E920E47EA811742EA8312A7FB02018B
:2023C000B6EB0B0164EB00042B0D43EA0C335E1844EB1C50DA465146E7FB0201C5F31304DD
:2023E0004FEA0B3343EA14534FEA0432019C43EA0603A4F10C040294009CCDE900B400F05F
:202400005EF903B0BDE8F08F00200146F9E72DE9F04D81EA030404F0004B21F00045144693
:202420004FF0000A23F0004150EA050220D054EA01021DD0C5F30A570246C5F31303C1F3BD
:202440001300C1F30A5640F4801543F48013A7EB0608101BD64608F2FD3873EB050002D374
:2024600008F1010801E092185B41B8F1000F03DA00200146BDE8F08D00204FF480110646D5
:2024800084460EE0171B73EB050705D3121B63EB050306434CEA010C49084FEA300092189D
:2024A0005B4150EA0107EDD152EA030012D082EA040083EA0501084305D0101BAB4106D26D
:2024C0000122002306E000224FF0004302E06FF0010253101AEB06004CEB085110EB0A00E5
:2024E00041EB0B01BDE8F04D00F0DAB870B521F0004303430CD0C1F30A550024D5EB0405A5
:2025000064EB0403D617AD1AB34102DB0020014670BD201841EB025170BDC10F80EAE070DE
:202520000844CA079623002100F08CB896230022114600F087B80EB540F2334102910021F2
:20254000CDE900110A460B4600F0B9F803B000BD00F0004220F00040C10DC0F3160040F4B5
:2025600000007F2901DA00207047962903DCC1F19601C84001E096398840002AF4D040422A
:202580007047C1F30A5210B5C1F3130140F2FF3341F480119A4201DA002010BD40F2334371
:2025A0009A42A2F2334203DC524200F032F810BD904010BD00F0004230F000400AD0C10D05
:2025C00001F56071C0F3160042EA0151C20840071143704700200146704701F0004330B49B
:2025E00021F0004150EA010206D00A0DA2F56072C1F31301002A02DC30BC00207047440F10
:2026000044EAC104C100E01830BC00EBC25000F010B8202A04DB203A21FA02F00021704705
:2026200021FA02F3D040C2F1200291400843194670470029A8BF7047401C490008BF20F0B0
:202640000100704710B4B0FA80FC00FA0CF050EA010404BF10BC704749B1CCF1200421FA67
:2026600004F411FA0CF118BF012121430843A3EB0C01CB1D4FEA00614FEA102042BF00200B
:2026800010BC704700EBC35010440029A4BF10BC7047401C490008BF20F0010010BC704756
:2026A00010B5141E73F1000408DA401C41F1000192185B411A4301D120F0010010BD2DE9E1
:2026C000F04D92469B4611B1B1FA81F202E0B0FA80F22032904600F053F804460F4640EAFA
:2026E0000A0041EA0B0153465A46084313D0114653EA010019D0C8F140025046FFF789FFA5
:2027000005460E4650465946424600F039F8084305D0012004E020463946BDE8F08D0020F0
:20272000054346EAE0762C4337430A986305E40AA0EB08000022FD0A44EA47540A3002D554
:2027400000200146E9E7010510196941DDE9084500196941BDE8F04DA2E70000064C074D82
:2027600006E0E06840F0010394E8070098471034AC42F6D3FFF7BEFCE8A1000808A20008A7
:20278000202A04DB203A00FA02F1002070479140C2F1200320FA03F3194390407047420016
:2027A00005D0C0F3C7525242914201DC0020704700EBC150704770B58C1810F8015B15F078
:2027C000070301D110F8013B2A1106D110F8012B03E010F8016B01F8016B5B1EF9D12B0762
:2027E00005D40023521E0DD401F8013BFAE710F8013BCB1A921C03E013F8015B01F8015B00
:20280000521EF9D5A142D8D3002070BD0029816802D041F0010101E021F0010181607047FC
:202820002DE9F05F2D2005F0A7F92E490878002853D000202C4C024624F81020401CC0B215
:202840000828F9D3DFF8A480274E0025DFF89CB0DFF89CA0894608F108081036CBF814605C
:2028600099F800104746404601F0DBFF0121384601F014FF012157465046FFF7C7FF012102
:20288000384600F0B2F8022001F086FF0028FAD0022001F0EBFE00213846FFF7B7FF00212E
:2028A000404601F0FBFE002034F8101036F81020114424F81010401CC0B20828F4D36D1CFF
:2028C000EDB2082DCAD3002034F81010C90824F81010401CC0B20828F6D3BDE8F05F2D2006
:2028E00005F098B820010020440A002000000240002401400029816802D041F4807101E052
:2029000021F4807181607047014600208968490700D501207047014600208968090700D587
:202920000120704710B542680E4B0C791A400B6842EA04221343436083680B4A1340D1E90D
:20294000024222434C7943EA44031A438260C26A097C22F47002491EC9B242EA0151C1629A
:2029600010BD0000FFFEF0FFFDF7F1FF70B5072409290AD9C568A1F10A0606EB4606B44055
:20298000A543B3401D43C56007E0056901EB4106B440A543B3401D4305611F23072A09D26C
:2029A000446B521E02EB820293409C4391400C43446370BD0D2A09D2046BD21F02EB8202FE
:2029C00093409C4391400C43046370BDC46A0D3A02EB820293409C4391400C43C46270BD86
:2029E000816841F00801816070470029816802D041F4A00101E021F4A0018160704781684A
:202A000041F004018160704700EB4100B0F80B0040BA00B270471CB50446C3208DF804001F
:202A2000E3208DF80500A07A022301AA012103F0FFFB00218DF804108DF80510002806D1BD
:202A40000091A07A022301AA012103F0EBFA1CBD7CB5044600200D460090A07A022301AAC0
:202A6000002103F0DFFA18B16168491C61607CBD04EB4501BDF80420A1F80B202168491CB8
:202A800021607CBD38B50C460546C32040EA04108DF80000E3208DF80100A87A02236A46CC
:202AA000012103F0C5FB85F8254038BDB0F80D0040BA00B2704770471CB5044601200090CF
:202AC000A07A042301AA0C2103F0ACFA18B16168491C61601CBD0199C4F80B102168491C54
:202AE00021601CBD70B514460B00054604D010220A491846FFF716FB002C0DD0074910225E
:202B000010312046FFF70EFB2846BDE87040034910222031FFF706BB70BD0000640A00200B
:202B200002490A8802808978817070477C02002030B5364900220A704A708A7090F8482348
:202B4000E2B300225FF00104C2EB021300EB430393F84430DB0704D00B7804FA02F52B43DC
:202B60000B70521CD2B2082AEED3002303EB4302141894F82F2102F01F02072A1FD0052A35
:202B80001DD0082A1BD0062A19D00C2A1BD00A2A19D00D2A17D00B2A15D0112A17D00F2A41
:202BA00015D0122A13D0102A11D0152A13D0132A11D0162A0FD0142A0DD010E01FE08A788B
:202BC00042F001020AE08A7842F0020206E08A7842F0040202E08A7842F008028A7094F8D8
:202BE0003021920706D494F92E21002A02DB4A78521C4A705B1CDBB2802BB7D330BDFF20FF
:202C00000870802048700F20887030BD7C0200202DE9F04F0446012197B0084604F0A8FC44
:202C200001214FF4047004F0BBFC0020FF4D431E4FF0010A00EB800105EBC101401C01F886
:202C4000083FD04681F81BA081F81CA00828F1DB0026DFF8DC93B346A01990F920000528BE
:202C600010D00A282FD00C2846D00D2859D00E2874D00F286FD010286ED094F83300172837
:202C80006BD001E199F8011000204A46C0EB001304EB430393F95230B3420FD108290DD2DF
:202CA00001EB810005EBC000491C80F809B0067251701078401C89F80000E5E0401CC0B230
:202CC0000828E3D3E0E099F801100020C0EB001304EB430393F95230B34208D1082906D2B4
:202CE00001EB810005EBC00080F809805EE0401CC0B20828EAD3C7E099F80110002000BF95
:202D0000C0EB001204EB420292F95220B24203D1082901D2022212E0401CC0B20828EFD324
:202D2000B2E099F801100020C0EB001204EB420292F95220B24208D1082906D2032201EB6B
:202D4000810005EBC000427230E0401CC0B20828EAD399E002E016E032E051E099F801108D
:202D6000002000BFC0EB001204EB420292F95220B24203D1082901D20422E0E7401CC0B200
:202D80000828EFD380E099F801100020C0EB001304EB430393F95230B3420CD108290AD23F
:202DA00001EB810005EBC000052343720672491C89F8011068E0401CC0B20828E6D363E068
:202DC00099F8012000204F46C0EB001104EB410191F95210B1420ED1082A0CD202EB820062
:202DE00005EBC00006214172067204F091F87878401C787048E0401CC0B20828E4D343E020
:202E000094F8340018283FD148270020C0EB001104EB410191F95220921C1CD191F858109E
:202E2000B94218D1C0EB001004EB400090F8581099F8010000EB800005EBC000817208210B
:202E40004172FE210172FFF7E6FD99F80100401C89F8010003E0401CC0B20828D6D37F1CBF
:202E6000FFB24B2FD1D90020C0EB001104EB410797F95210891C03D197F85810362913D0C6
:202E8000401CC0B20828EFD3761C1E2EFFF6E4AE99F80080B8F1000F7DD0002299F80170D3
:202EA0001046002319464AE0C0EB001004EB400047F6FF7290F8581099F80100002300EBE8
:202EC000800005EBC000817209214172FE21017240F6FF700090B7F93E00514206F056FF5F
:202EE00080B2029040F6FF70009047F6FF72B7F942000023514206F049FF82B299F801007F
:202F0000029900EB800005EBC000FFF7D4FD99F80100401C89F80100B6E700BF01EB8106F5
:202F200005EBC60696F809C0BCF1000F06D196F908C0844502D186F825200123491CB942B1
:202F4000ECDB0BB1521CD2B2401CC0B20828A8D38DF840A0CDF83CB08DF841A04FF4602044
:202F6000CDE9110B8DF84C80DFF8C8805E460FA945464046FFF7D6FC01212846FFF7BAFC9E
:202F80000127DFF8B4A00025601990F82000052818D1002000E056E0C0EB001104EB41015F
:202FA00091F95210A94209D13A467F1CFFB21AF8351007234046FFF7D9FC03E0401CC0B211
:202FC0000828E7D36D1C082DDEDB1C4C204601F071FB184804AA4C30194982E8430099F83B
:202FE0000000CDE907068020099040000A908000CDE90B06C000CDE90D0604A9204601F027
:20300000F3FB012144464046FFF700FC2046FFF7E7FC2046FFF77FFC0028FAD12046FFF739
:20302000EEFC2046FFF770FC00280BE00409002020010020002401403C0200200800024050
:20304000440A0020EDD117B0BDE8F08F2DE9F04F044697B02E2004F08FFD00250DF1100B67
:20306000C5EB051004EB400696F8501096F952000A0996F8583000287CDB211891F92010EC
:2030800005290CD00A2941D00C2974D00D2973D00E2971D00F296FD010296ED098E1F94ACE
:2030A000002100BF01EB810302EBC30393F90830834203D0491CC9B20829F3D396F85300F9
:2030C000C30810D001EB810102EBC10191F82520ED4931F812106CE100F6FF7070E100BF17
:2030E000A0F6FF706CE101EB810002EBC00090F82510E54830F8111085E000BF47F6FF7061
:20310000E24B00905BF825001A0D42E10021DD4BCDF83C1001EB810203EBC20292F9082002
:20312000824203D0491CC9B20829F3D301EB810803EBC80799460FA9384606F091F8002833
:203140007ED159F83810491C49F8381096F85300C1081AD0C008C0EB0010FFF7E7F90F9904
:20316000FFF770F8CA490F90884207D9C949FFF714F809E0C8E016E04CE07BE0C64988429A
:2031800003DDC449FFF75BF80F90C4490F98FFF75CF80F90FFF7DCF96421484340F225216A
:2031A00090FBF1F08AE1B74B002100BF01EB810203EBC20292F90820824203D0491CC9B20B
:2031C0000829F3D396F85300C00801EB810003EBC0004FF0000119D003F000FE014696F845
:2031E00053006FF05402C008504311EB40014BF8251002D501F6FF7105E0B1F5805FFFF61A
:203200007DAFA1F6FF714BF8251077E703F0E6FD0146F8E79B4B002101EB810703EBC70772
:2032200097F90870874203D0491CC9B20829F3D396F85300C00801EB810003EBC00000E06F
:2032400032E0114613D003F0C9FD96F853106FF05402C908514300EB410000BF4BF825000B
:203260000028FFF639AFB0F5805FCEDB38E703F0B5FDA5E00021834BADF80C1001EB8107AF
:2032800003EBC70797F90870874203D0491CC9B20829F3D301EB810803EBC80199460F4697
:2032A00003A803F007FE18B17868401C78608FE059F83810491C49F8381096F85300C108EE
:2032C0001BD0C008A0EBC00000EB4000BDF80C1000EB801001EB40006B4900B2303110F581
:2032E000004F21F8150003DC4FF6FF7210446DE0B0F5004F6CDB401C68E06348BDF80C10C0
:20330000303020F8151063E0811C02D0C01C7DD05EE05C49002000BF00EB800701EBC70747
:20332000BF7A9F4203D0401CC0B20828F4D300EB800001EBC000417A082902D009292FD0D5
:2033400046E096F85310C908114626D0FFF75CFB014696F85300C008A0EBC00000EB400085
:2033600000EB801011EB40004BF8250003D547F6FF72104405E0B0F5004F04DBA0F5FE40C9
:20338000FF384BF8250047F6FF7200925BF825005342002106F0FAFC90E0FFF735FBF0E7C7
:2033A00096F85310C9080ED0FFF780FB014696F853006FF05402C008504301EB40004DE764
:2033C0004BF825009AE6FFF771FBF9E721F8150096F844002C492C4F420905EB8500503192
:2033E000303701EBC00137F9150002F015FA4BF8250096F851100A0664D401F07F0247F625
:20340000FF7100234F420097039200E009E0CDE90131B6F94230B6F94020B6F93E105F46D9
:20342000F6E01F4B02EB420003EB80004FF400424168914201DB511E03E011F5004F01DC4E
:203440001249416096F85300C1082BD096F85010C008090901EB410103EB81016FF05403AF
:203460004968584311EB40004BF8250002D55A0C104404E090421FDBA0F5FE40FF384BF8CE
:20348000250019E004090020440A00200180FFFF000034C30000B4430000344300007A44D1
:2034A000D415002096F85000000900EB400003EB800041684BF825103BF82500FE4985E757
:2034C00040421AE037F91510401A06F0FFFB96F8511001F07F0202EBC201884248D2F7489D
:2034E0005F4600EB05113BF8250000B203F0F4F8F0B3F148103830F9150047F8250000BFB8
:2035000096F85A1064295ED096F95400002805DB96F8592002F00702012A15D096F95520F7
:20352000002A05DB96F85920C2F3C102012A09D096F95620002A3EDB96F859300122B2EBDF
:20354000531F38D100280EDBDC4805EB4502803000EBC2000079C00605D596F8590000F037
:203560000700012827D096F95500002810DB00E03DE0D24805EB4502803000EBC200007B07
:20358000C00605D596F85900C0F3C100012812D096F95600002816DBC84805EB4502803030
:2035A00000EBC200007DC0060DD596F859200120B0EB521F07D15BF825204A43642192FBF6
:2035C000F1F14BF8251002F069FB4FF000090D9196F9543086464A46CA464946002B34DB0D
:2035E00096F8590000F0070005282CD02DE047F6FF714A4200200092CDE901010390B6F9D2
:203600004230B6F94020B6F93E105F465BF8250006F0CEFB47F8250001B206F13E000B22D7
:2036200004F06CFF47F8250096F8501001F00F01491C04F077FE47F8250096F84410890734
:203640003FF53EAF5CE74FF0010996F95600002807DB96F859C00527B7EB5C1F01D149F0D3
:203660000409002B06DB96F8597007F00707032F00D1012296F95570002F08DB96F859C0A2
:20368000CCF3C10CBCF1030F01D142F00202002808DB96F859C04FF00308B8EB5C1F01D1EB
:2036A00042F00402002B08DB96F859C00CF0070CBCF1040F01D14FF0010A002808DB96F899
:2036C00059C04FF00408B8EB5C1F01D14AF0040A002B06DB96F8593003F00703022B00D130
:2036E0000121002F07DB96F85930C3F3C103022B01D141F00201002807DB96F859000223BD
:20370000B3EB501F01D141F004016C4B05EB45008033149003EBC00003791F0967F3410361
:2037200003711593077B3B0963F341070773037D4FEA131C6CF34103037596F954C0BCF13C
:20374000000F0DDBDFF8788108EBCC0C9CF804C04FEA1C18DDF854C068F3041C80F804C072
:2037600096F955C0BCF1000F0ADBDFF8548108EBCC0C9CF804C04FEA1C1C6CF304170773D0
:2037800096F95670002F08DBDFF834C10CEBC7073F793F0967F30413037549EA020353EAD3
:2037A0000A0374D05FEAC9732DD00379DFF80C81C3F30017C3F3400C08F18008674507D97A
:2037C0004FF4FA771EEB070C149F48F837C03BE09B0718D5394F149B803757F833800D9BED
:2037E000BEEB080C63F100034FF032080027B8EB0C0C9F4107DADFF8C4C0149B0CF1800C06
:203800004CF833E020E05FEA497329D5037DC3F30017C3F3400C674505D94FF4FA771EEBB8
:203820000703036110E09B071AD507690D9BBEEB070863F100034FF0320C0027BCEB080C13
:203840009F410DDAC0F810E096F857704FF6FF73B3FBF7F71B4B53F825C0674443F8257040
:203860005FEACA733DD00379DFF85080C3F30017C3F3400C08F18008674509D9DDF850C0CF
:203880004FF4FA771EEB070748F83C704AE068E09B0726D5149BC146002758F833800D9BDA
:2038A000BEEB080C63F100034FF03208B8EB0C0C9F4116DA149F07E0740A0020D40B0020B9
:2038C000B4110020140D002049F837E096F857604FF6FF73B3FBF6F79D4B53F82560F61B0A
:2038E0002AE05FEA4A7329D5037DC3F30017C3F3400C674505D94FF4FA771EEB07030361B6
:2039000010E09B071AD503690D9FBEEB030867F100074FF0320C0023BCEB080CBB410DDABD
:20392000C0F810E096F857604FF6FF73B3FBF6F6874B53F82570BE1B43F82560D30702D052
:203940000379DB0609D4930702D5037BDB0604D4520706D5027DD20603D57D4B002243F8FD
:203960002520D9B1CA0709D00279D20606D55BF825004142764840F825100FE08A0702D523
:20398000027BD20604D4490708D5007DC00605D55BF825006E49404241F825006C4850F8A5
:2039A0002510B1F5803F02DB4FF6FF7103E011F5803F02DC674940F825105BF8251050F868
:2039C00025004FF4004C08445A464BF82500604502DB47F6FF7003E010F5004F02DC5E48F6
:2039E00042F825006D1CEDB2082DFFF439ABDFF860810021A8F1C008A8F5F87BA8F5E879EC
:203A00000D464FF0805A4FF0E02300BF01EB410608EBC6000679F60607D5C1EB011604EB44
:203A2000460696F85960760723D0067BF60608D5C1EB011604EB460696F8596016F0180FB7
:203A400017D0007DC00607D5C1EB011004EB400090F8590040090CD0C1EB011004EB400082
:203A600090F85900460751D010F0180F4ED040094CD0C1EB011004EB400090F8446016F02F
:203A8000180F43D0C6F3C107012F06D0022F13D0032F2ED052F8210026E090F85300760758
:203AA00000F0070052F8216052F8200002D4064447F6FF70304415E090F85300760700F05D
:203AC000070052F8216052F8200007D506EBD676761000EBD070A6EB600003E0301AA0F52D
:203AE000FE40FF3842F82100604509DB47F6FF700AE090F8530000F0070052F82000F1E7C3
:203B000010F5004F02DC144842F821005046C3F880A132F82160C1EB011736B204EB4707B6
:203B20002BF8116097F84470FF0702D029F8116001E029F81150C3F80001491CC9B2082914
:203B4000FFF464AF2E2003F065FF17B0BDE8F08F140D00200100FFFF0180FFFF2DE9FF5F9C
:203B6000174688468346002269461046FEF7BAFF5FF00004C4EB041101EB080696F8C40217
:203B8000C8B10025EA4606F2B62910E03878802811D24A463AF91400294601F0E5FF3A7888
:203BA0000BF802003878401C6D1C3870EDB296F8C302A842EAD8641CE4B2082CDAD3BDE889
:203BC000FF9FFEE72DE9F047814602F067F82649DFF8988000224E788F7808F1800ABE422D
:203BE00006D0B24204D9BA4202D8B9F8B45201E0B9F81C500AEBC20494F804C061466CF382
:203C0000410118F802C06CF3000121715FEA017C0AD401F00105C1F3400C65451DD04AF82A
:203C2000320041F0080117E001F00103C1F3400C63450AD15AF83230C31AAB4205D921F03C
:203C4000080363F38203237107E05AF83230C31AAB4202D921F008012171521CD2B2802A62
:203C6000BDD3BDE8F08700007F020020340D002070B515460C4618B180220749FEF752FAC8
:203C8000002C07D0102205492046FEF74BFA04480078287070BD0000340D0020B41500202E
:203CA0007F0200202DE9FC5F0646302003F064FFDFF830A30025DFF830830AF58069AB46CE
:203CC00096F93E03002700280FDA96F93F0300280BDA96F94003002807DA96F94103002828
:203CE00003DA96F9420300284DDB002404EB4400811991F92E01A84234D191F82F01420926
:203D000030D047097A1E0120904098F80020104218D009EBC40C23469CF80400024660F380
:203D200041028CF8042091F92E1160460AEBC1010979890861F30002AB498CF804203246F5
:203D4000C91D0DE009EBC4000279D3060AD522F07D020271A44949F834B023463246C91DC8
:203D600002F0D2FD641CE4B2802CBFD35FB1002404EB4400304490F92E11A9422BD198F814
:203D8000002022B327E0002404EB4400821992F92E01A84216D109EBC40723463979084682
:203DA00061F34100387192F92E210AEBC20132460979890861F300008B4938713846C91D73
:203DC00002F0A2FD641CE4B2802CDDD36DE090F82F21520932D0A94207D198F80020D20712
:203DE00003D090F82F2152093AD0A94207D198F80020920703D590F82F21520930D0A942B1
:203E000007D198F80020520703D590F82F21520926D0A94207D198F80020120703D590F8D4
:203E20002F2152092BD0A9423AD198F80010C90636D590F82F01400912D031E009EBC407B9
:203E400039790A4661F341023A7190F92E010AEBC0000079800860F300023A71384609E049
:203E600009EBC4000279D3061AD522F07D02027149F834B05C4923463246C91D0EE009EBD0
:203E8000C4073979CA060BD521F07D013971564949F834B023463246C91D384602F034FD90
:203EA000641CE4B2802CFFF463AF6D1CEDB2802DFFF406AF5A46434688F800B000203118FC
:203EC00091F93E13002908DB09EBC1011C780979C1F30011814021431970401CC0B20528C1
:203EE000EDD34FF0E0254FF0805C00214FF0010A9346C5F880C1DFF8F4E0084600EB40023B
:203F0000324492F830319B074AD492F92E31002B46DB0EEBD10400940194237801F00708B8
:203F20000AFA08F4A343019C0127237092F83021D20709EBC002127934D042F30012521C95
:203F400002FA08F21A43009B83F8002096F8482302B10FB1491CC9B2401C8028CEDB534646
:203F60005C46C5F800C1204E0020F61D06270725311F4FF004094FF0050A4FF0020B4FF0B2
:203F8000030EFF2216F800C0BCF10D0F21D2DFE80CF0200C0E11142017201A1C20201E0058
:203FA0000027D3E7C2F30012CAE70F5412E001F800900FE001F800A00CE001F800B009E0C4
:203FC00001F800E006E00C5404E00D5402E00B5400E00A54401C0428D4DBBDE8FC5F302077
:203FE00003F018BDB40D00207F020020B4150020F8B504460E462F2003F0BEFD00208DF8A1
:020000040800F2
:2040000000006A462146304603F016F96A462146304604F09BFB0B4D9DF800006A46687085
:2040200021463046FFF79AFD9DF80000A8706A462146304604F01EFC2F2003F0EBFC9DF810
:204040000000F8BD7F020020C1B2000A40EA0120704700002DE9F84F0020ADF80000DFF892
:2040600034A14BF6BF7648F280074A4D4A4C40F68F7848F60F7BDFF824910AF1440A31E01C
:204080000888474A10F00F00107034D0454901EB8001D1F8002CADF80020BDF800201204CC
:2040A0000BD5D1F8002C02EA0802C1F8002C3E4901EB800050F8040C8047BDF80000000683
:2040C00010D537483749007801EB8001D1F8002C02EA0B02C1F8002C344901EB800050F813
:2040E000040C8047DAF800004946A9F800000004C6D4BDE8F88F28682080208800F0300025
:204100006080208800F4405020802868304080F4005080F02000384328600888C0062868B6
:2041200015D400EA0B00286002F08CFA26E02188890401D580F400506188C90626D4618830
:20414000890601D580F0200038432860D1E7ADF80000BDF80000000506D5286800EA0800F3
:20416000286004F097F909E0BDF800000004B9D5286800EA0800286003F074F92868218860
:204180003040C904D3D580F48050D0E780F01000D5E70000005C00404605002026040020B2
:2041A00034050020005000404C0400203004002070B506460D461046002404E0315D641C22
:2041C000E4B203F02AF89C42F8D3C043C0B2A84201D1012070BD002070BD000081000848EE
:2041E0000844D0F8001C490409D5D0F8001C48F68F7211404CF280021143C0F8001C704751
:2042000000500040810008480844D0F8001C490609D5D0F8001C48F68F72114048F2C00270
:204220001143C0F8001C704700500040810006480144D1F8000C48F68F62104048F28002EB
:204240001043C1F8000C704700500040174910B50A68918841BB062804D1117801F07F0156
:20426000012905D0117801F07F0121290AD01BE09078222802D0212802D015E00C490CE0B1
:204280000C490AE0032802D009280DD101E00A4903E00B4B09490920187029B10020916177
:2042A00050828847002010BD022010BD3805002005430008DD420008E942000855440008D9
:2042C00068040020014904F085BB000078040020014904F07FBB000070040020014904F0EE
:2042E00079BB00008804002008B10448704704490120096808820020704700006C04002052
:2043000038050020014904F065BB00008004002005490968C978042901D300207047034A19
:2043200002EBC10104F056BB38050020C004002009B9002800D00220704700000649096835
:20434000097801F07F01212901D10B2801D00220704700F073B8000038050020284810B5C5
:20436000006800218172C1722649C9794172002003F0F6FE4FF40071002003F0BFFF10216D
:20438000002003F091FF1821002003F015FF5821002003F06BFF0020FFF748FF1A4890F8DD
:2043A0002C10002003F018FF002003F04DFF4FF4C061012003F0A2FF4FF48071012003F0D7
:2043C00055FF4FF48271012003F0F6FE0021012003F05CFF4021012003F0FEFE4FF4405176
:2043E000012003F019FF2021012003F05DFF002003F0BEFE0549012008600549087010BDA7
:2044000038050020CF0200209004002008050020BC02002004480068807A002802D003499B
:2044200005200860704700003805002008050020014904200860704708050020034804495C
:204440000068C0784860002070470000380500206804002008B104487047044902200968B8
:20446000088200207047000069040020380500207047704710B501F0ADFC01F015FC01F031
:20448000C3FC01F02DFC054800240068847203F057F805F01BF90248046010BD3805002051
:2044A0000805002070B5222003F066FB202000F083F900281BD0202000F0E4F8002145489B
:2044C00000F0ECF8444801890906FCD4434E002404EB840006EBC00595F90800002802DB9A
:2044E00095F8230020B1641CE4B2082CF0D36AE0082C68D204EB840006EBC000407A01286F
:204500000AD002280ED0032812D0042818D0052823D006282ED034E0641C2846E4B204F0C0
:20452000EFFE2CE0641C2846E4B202F0A9FC26E0284602F0A5FC95F82500C0B9012107E02C
:20454000284602F09DFC95F8250003280CD30EE04FEA050002F054FC35E0284602F090FC37
:2045600095F82500072802D2401CC1B2F0E7641CE4B204E0641C2846E4B202F011FE082C2D
:2045800021D204EB840006EBC00090F908100029EDDB90F823100029E9D090F824100029F0
:2045A000E5D0417A01290CD0022911D003290FD004290DD005290BD00629D8D102F0CAFDCA
:2045C00001E004F07FFEBDE87040222003F022BA0021BFE71C000240003001400409002060
:2045E00010B5232003F0C8FA4FF40074204600F0E3F8E0B1204600F045F80021184800F081
:204600004DF81848018901890906FCD4164A002101EB810002EBC00090F90830002B02DB9E
:2046200090F8243043B1491CC9B20829F0D3BDE81040232003F0EEB901EB810102EBC101E7
:20464000012381F82430002180F82310417A0129EDD1002205210C3003F02EFCE7E700008B
:20466000300002400030014004090020C10002D50249086070470249486070470404024034
:2046800000000240C10002D50249086070470249486070470404024000000240002901680E
:2046A00002D041F0010102E04FF6FE72114001607047000001684FF6FE7211400160002104
:2046C000016041608160C1603149314A0839904203D1486840F00F0006E02D4A1432904296
:2046E00004D1486840F0F00048607047284A2832904203D1486840F47060F5E7244A3C32D8
:20470000904203D1486840F47040EDE7204A5032904203D1486840F47020E5E71C4A6432BD
:20472000904203D1486840F47000DDE7184A7832904203D1486840F07060D5E7154A111F0E
:20474000904203D1086840F00F0006E0114A1432904204D1086840F0F000086070470D4AD0
:204760002832904203D1086840F47060F5E7094A3C32904203D1086840F47040EDE7054A0B
:2047800050329042EAD1086840F47020E5E70000080002400804024001460020CA0001D56B
:2047A000034A00E0034A12680A4200D001207047000402400000024001460020CA0001D582
:2047C000034A00E0034A12680A4200D0012070470004024000000240002A026801D00A43B7
:2047E00000E08A430260704730B5036847F6F07293430C6A8A682243D1E904452C4322438A
:204800008C692243CC6922434C6A22438C6A22431A430260CA6842600A6882604968C16075
:2048200030BD4160704700002DE9F047DFF89480254F4FF03009D8F8001001F11005088A96
:204840000E7A08B9042E04D0AC88A04215D8042614E01E480178012903D0072610203880F7
:204860002BE01B4A002112681A4B120403EBD2325160A7F8009001701FE00226844200D9A9
:204880000446A968204688478246002001F05EF901462246504604F04FFF2146002003F057
:2048A000F5FC2888001B2880688820446880A7F8009009494FF440500880D8F80000067234
:2048C000BDE8F08738050020480500202C050020505C004000600040460500202DE9F0475D
:2048E0002A4EDFF8AC802B4F35684FF0300935F8100FA968A9B100B3AC88844200D9044627
:204900002046884782462888001B2880688820446880002001F0FAF801462246504602F0B1
:20492000C5FD288848B14FF44051A8F800100021084603F0ABFCA7F800902888A9888842A5
:2049400001D3032001E020B1052031680872BDE8F0873168062008720F48006880688047B3
:204960003068007A08280AD00C49002009680C4A090402EBD131486048463880E7E74FF4E4
:204980008051A8F800101020F7E700003805002046050020480500203C050020505C004006
:2049A00000600040F8B55D4C5D4D09262068002729684278062A05D0AAB1082A4DD00A2A4B
:2049C00050D06BE00278520668D18078012804D0022804D0032804D060E0C96956E0096A54
:2049E00054E0496A52E04288B2BBC288022A55D102798ABB0278530601D1838833B102F085
:204A00007F02012A04D0022A0CD047E045493DE08A69407900219047F0B92068807A002845
:204A2000F4D13BE0417901F00F0001F070020B063D4901EB8001D1F8001C03D5C1F30111F2
:204A4000090102E0C1F301310903384B1B78834224D90AB90029D9D120E0007840061DD15E
:204A6000334913E0027802F07F02012A16D1827AA2B1428892B9027982B9C288012A0DD15B
:204A80008A6940790021904740B92A4931B120684782816100208847002006E029682068E3
:204AA000096940788847032813D021680A8AA2F57F43FF3B0BD002280ED06AB108780006BB
:204AC00026D5C888009082420AD9088218E00E72F8BD20680672F8BD4FF008000872F8BD72
:204AE0000ED22868144B90F82C00824201D21F7006E0B2FBF0F400FB142008B901201870FD
:204B0000286890F82C008882BDE8F840FFF78CBE03200872094900030880F8BD380500209E
:204B20003C050020198A000800500040E0040020AD890008F18900082C0500204605002059
:204B4000704700000249086008680028FCD170472000002000EB800000E0401E0028FCDCE6
:204B6000704701004FF0000000D101207047000010B5002808D0054A00214FF46573545899
:204B80004450091D9942FAD310BD000000FC00082DE9F0410546FFF7E4FF002813D10B4E12
:204BA00000F01CFE304600F0B7FD00244FF465772959301900F0EAFD241DBC42F8D3BDE83D
:204BC000F04100F0DBBDBDE8F081000000FC000810B501440A4A91F8203002EBC00152F8D3
:204BE00030008988022B04D000F03CFF28B1002010BDBDE8104000F035BF012010BD0000BB
:204C0000300000200149012008707047BC0200202DE9F04FB7B0022401F040F84FF4FA6123
:204C20004018FA49086069464FF0010004F05EFDF7489DF8002000F120012491D2313591AF
:204C40001E3134911E3133913C3132913C3131913C3130913C312F913C312E913C312D911C
:204C600020312C910F312B910F3120910F312A910F3129911E3127910F31269100F52077BA
:204C800000F2013B00F5407A343100F2833023912590022A07D04FF001096946032A7CD050
:204CA000042A7BD1A3E29DF80190B9F1000F75D0B9F1100F72D80224D548FFF759FF4021CC
:204CC00010A8FDF748FA02208DF840008DF841900DF140080DF1510518AEB9F1110F5DD250
:204CE000DFE809F05C091B3349626C747C848E9398A9BEF9F700C64C1A22A11C2088ADF84E
:204D0000420008F10400FDF70DFAE069CDF85E000DF162001E222499F0E0BD4E002500BFD1
:204D2000C5EB051006EB40016D1CEDB208EB04001E223E31FDF7F6F91E34E4B2C4F14000EE
:204D40001E28EDD8402110A8F2E1B14E022500BFC5EB051006EB40016D1CEDB208EB040061
:204D60001E223E31FDF7DEF91E34E4B2C4F140001E28EDD8E6E7A64E042500BFC5EB051063
:204D800006EB40016D1CEDB208EB04001E223E31FDF7C8F91E34E4B201E0B2E016E2C4F156
:204DA00040001E28EAD8CDE708F102001E223599FDF7B8F930461E2234999FE008F102004C
:204DC0003C223399FDF7AEF9F88D16E008F102003C223299FDF7A6F9388E0EE008F102002D
:204DE0003C223199FDF79EF9788E06E008F102003C223099FDF796F9B88EADF87E00A1E77E
:204E000008F102003C222F9978E008F102003C222E9973E008F1020018222D99FDF782F93C
:204E20000DF15A000F222C99FDF77CF90DF169000F222B9962E008F102000F222099FDF744
:204E400071F928460F222A99FDF76CF930460F222999FDF767F90DF16F000F2259464DE006
:204E60000F2208F102002799FDF75CF928460F222699FDF757F92020654A002102EB8104D9
:204E800008EB0003001D491CD4F82E43C9B21C60C0B20429F2D300215418491C94F83E4303
:204EA00008F80040401CC9B2C0B20529F4D308EB00025146801C31F8443F1380C0B208EBA8
:204EC00000024B88801C1380C0B2097908F8001038E70FE0FFE75046302250F8491FCDF879
:204EE00042104168CDF846100089ADF84A0013A8239903E008F1020010222599FDF712F9E0
:204F000020E79DF801004FF0030801F1200601F1110511282FD2DFE800F0FB091A2F455BAC
:204F2000666F7D868F9296ABBFFDFC00384CBDF802001A222080A01C091DFDF7F3F8DDF8D2
:204F40001E00E0611E220DF12201249848E0304F00250E46C5EB051007EB40006D1CEDB296
:204F600031191E223E30FDF7DDF81E34E4B2C4F140001E28EED8CBE0254F02250E4600BF2E
:204F8000C5EB051007EB40006D1CEDB231191E223E30FDF7C7F81E34E4B2C4F140001E2824
:204FA000EED8B5E01A4F04250E4600BFC5EB051007EB40006D1CEDB231191E223E30FDF7E6
:204FC000B1F81E34E4B2C4F140001E28EED89FE01E22891C3598FDF7A5F831461E223498FA
:204FE000FDF7A0F89BE03C22891C3398FDF79AF8BDF83E00F88592E03C22891C3298FDF7B3
:2050000091F8BDF83E00388689E000000C000020AC1600203C22891C3198FDF783F8BDF8EF
:205020003E0078867BE03C22891C3098FDF77AF8BDF83E00B88672E03C222F9801E02E9859
:205040003C22891CCCE71822891C2D98FDF76AF80F220DF11A012C98FDF764F80F220DF113
:2050600029012B98FDF75EF80F220EA92098B7E70F22891C2098FDF755F829460F222A988A
:20508000FDF750F831460F222998FDF74BF80F2258460DF12F01A3E70C460F22891C2798C6
:2050A000FDF740F829460F222698FDF73BF820215B4A0020651802EB8003091D401C2D6835
:2050C000C0B2C3F82E53C9B20428F3D3625C5046491CC9B200F83E2F625C491CC9B24270CC
:2050E000625C491CC9B28270625C491CC9B2C270625C491C0271C9B26218891C1288C28044
:20510000C9B26218891C1288C9B20281615C817201E01FE00FE09DF8010010281FD29DF88A
:2051200001008DF88080401C8DF88100022120A804F0B2F968E05046DDF8021040F8491F98
:20514000DDF806104160BDF80A100181302203A9239845E71022891C2598FCF7E3FF3048AC
:205160004FF4B1720188B2EB111F30D08DF88880FE208DF88900022122A804F08DF9102023
:205180008DF883008DF882904002264DADF8800020A9284600F0E8FBA814ADF8800020A9E2
:2051A000214800F0E1FB204E0024204F0C36306880F480503060E86880F40050E860384631
:2051C000FFF7C8FC641CE4B2062CF0D31CE041F2246101801248FFF7DBFC15480168154A89
:2051E00001F4E06111430160BFF34F8FFEE712A420AD1DCC85E81D0020A8491CFCF7B6FF84
:2052000010B9114981F8009040216846FCF7A3FF4FF44051012002F0FFFF37B0BDE8F08FCE
:20522000AC16002000100140000C0140400D03000CED00E00400FA05626F6F746C6F61646E
:2052400065722072756E0000000000202DE9F34FCD4E83B00C4696F90900002807DB96F9B9
:205260000A00002803DBC948B0F900007060012000EB400106EB810191F90920002A08DB14
:2052800091F90A10002904DB0125DFF804A3AB4605E0401C1028EBDB05B0BDE8F08F00F0C5
:2052A000FDFC05EB450106EB810292F90930002B7EDB92F90A70002FFADB92F808C04FEA6F
:2052C0008C6C4FEA1C6C82F808C0E14603EB430CA444CDF804C09CF92E811AF808C0BCF133
:2052E000000F03D049F0010C82F808C007EB470CA444CDF800C09CF92E811AF808C0BCF1C7
:20530000000F05D092F808C04CF0020C82F808C092F808C0E1460CF00308CCF3810CE045DA
:205320007ED004EB050C9CF883C3BCF1010F07D0BCF1020F09F00F0C11D0DFF8588205E068
:20534000DFF8508209F00F0C08F1100818F90CE0BEF1000F72D007DD4FF0010806E0DFF899
:20536000348208F12008F1E74FF0FF3892F90BC068F3030C82F80BC056F82180A0EB080879
:20538000B8F1320F04D84CF30308B8EB2C1F56D1BEF1000F20DD019F97F82F715FEA571CA2
:2053A0000ED04FF0FF3C0CEB571C0BFA0CF700E0CFE0DFF8E4C19CF800C017EA0C0F06D0D2
:2053C000039F07EBC3031F7947F010071F71D37A23F0F00310331CE0009B93F82F315FEA9C
:2053E000531C0CD04FF0FF3C0CEB531C0BFA0CF3DFF8A4C19CF800C013EA0C0F06D0039B62
:2054000003EBC7031F7947F010071F71D37A43F0F003D37246F82100576807EB0E0300E0A5
:205420009CE05360B3F5004F02DB47F6FF7303E013F5004F45DC594B536042E049E046F87F
:205440002100D2F8048008EB2C18C2F804804FEA89084FEA2C1C82F80880BCF1000F16DD6C
:20546000019F97F82F715FEA571C0CD04FF0FF3C0CEB571C0BFA0CF7DFF81CC19CF800C0D1
:2054800017EA0C0F25D0039F07EBC30315E0009B93F82F315FEA531C0CD04FF0FF3C0CEB21
:2054A000531C0BFA0CF3DFF8F0C09CF800C013EA0C0F0ED0039B03EBC7031F7947F010076C
:2054C0001F7192F90930002B43DB92F90A30002B3FDB92F9093003EB4303234493F83031DA
:2054E0005B09012B3ED0022B3FD0032B40D0642784F81E7092F90A3003EB4303234493F814
:2055000030315B09012B36D0022B37D0032B38D06423A37756F821C0A0EB0C0CBC450AD9D3
:2055200092F909C0039F07EBCC0797F804C02CF0100C87F804C056F82110401A984208D94E
:2055400092F90A10039800EBC100017921F0100101716D1C102DFFF69BAE9DE64FEA9903F5
:205560001372B6E7B4F8AE72C4E7B4F8B072C1E7B4F8B272BEE7B4F8AE32CBE7B4F8B032DB
:20558000C8E7B4F8B232C5E7D4150020242C0140340D00208A0200207F0200200180FFFF59
:2055A0002DE9F04707464FF0FF3080460021434D88B04FF0010944460E4600BF01EB41031E
:2055C00005EB8302491C50729072167245F823601029F3DB97F82800062833D197F829003D
:2055E00006282FD1082169720921A97203A801F0E3FF0121C80201F0D3FF4FF6FF70ADF8AE
:205600000400ADF800601020DFF8B4A0ADF80200ADF806606946504603F0CAFD97F8830360
:205620004FF0020302281A4601D0012100E00321504603F0CAFC224824300680012150465A
:2056400003F0B9FC5FF0000101EB4100384490F82F0100F01F00172829D1414527DD0020FF
:2056600000EB40023A4492F82F2102F01F02182A1AD1A04218DDB9F1100F15D209EB49029F
:2056800005EB82024BB2537244B29472D07A984620F00F00401C20F0F0001030D07209F1B9
:2056A000010000F0FF0902E0401C8028D8DB491C8029C9DB08B0BDE8F0870000D4150020C9
:2056C000002C01400F48C16941F0C051C1610E490A6842F480720A600C4B44F24C221A8088
:2056E0000A6822F480720A60C16921F0C051C16107480168074A01F4E06111430160BFF3B2
:205700004F8FFEE70010024000700040106C00400CED00E00400FA0570B505464FF4302623
:20572000304600F067F8042811D1094C206940F0020020616561206940F04000206130464F
:2057400000F058F8216941F6FD721140216170BD0020024008490420CA68D20701D0012005
:205760007047CA68520701D502207047C968C906FBD5032070470000002002400248016978
:2057800041F0800101617047002002402DE9F841064600204FF4005700900D46384600F036
:2057A00029F8042816D10C4C206940F0010020613580B846384600F01DF8BF1E042806D10C
:2057C000B61C280C00963080404600F013F8216939402161BDE8F881002002400348024961
:2057E00041600349416070472301674500200240AB89EFCD00B50346FFF7ACFF03E000BF01
:20580000FFF7A8FF5B1E012803D0002B00D1052000BD002BF4D1FAE730B5082A71D2DFE8A6
:2058200002F0A004182E445A71864E4BB3F900204243132001EB400434F9024C21F81040C6
:2058400033F91050401E04FB052210F0FF00F1D182E0444B2833B3F9002042435FF0130078
:2058600001EB400434F9024C21F8104033F91050401E04FB052210F0FF00F1D16CE0394B73
:205880005033B3F9002042435FF0130001EB400434F9024C21F8104033F91050401E04FBD5
:2058A000052210F0FF00F1D156E02E4B7833B3F9002042435FF0130001EB400434F9024C48
:2058C00021F8104033F91050401E04FB052210F0FF00F1D140E0234BA033B3F900204243DC
:2058E0005FF0130001EB400434F9024C21F8104033F91050401E04FB052210F0FF00F1D161
:205900002AE02EE0174BC833B3F900204243132001EB400434F9024C21F8104033F91050EE
:20592000401E04FB052210F0FF00F1D114E00D4BF033B3F9002042435FF0130001EB4004D0
:2059400034F9024C21F8104033F91050401E04FB052210F0FF00F1D1642092FBF0F000B2EF
:20596000088030BD22010020F0B5CA78002502F00F03D20601D58A7813430A784FF00F0E7B
:2059800012F0FF0F4FF001021CD004680F8802FA05F63740B74211D14FEA850C0EFA0CF7A8
:2059A00024EA070703FA0CF43C43CF78282F02D0482F02D002E0466100E006616D1C082D08
:2059C000E4D304600C88FF2C1ED944685FF0000606F1080702FA07F50F882F40AF420FD120
:2059E0004FEA860C0EFA0CF7BC4303FA0CF73C43CF78282F00D14561CF78482F00D1056149
:205A0000761C082EE4D34460F0BD0000F0B5144C002801DAE36900E06368420D120185B21E
:205A2000C0F301579540C0F30346032F05D0C2020AD50322B240934307E023F0706263685C
:205A400023F07063636002E0AB4343F0706201B12A43002801DAE261F0BD6260F0BD000047
:205A6000000001400246002092680A4200D0012070470AB1016170474161704730B589B044
:205A80000121042001F080FD0121082001F088FD11200024ADF814001A4DADF81040ADF883
:205AA0001640ADF8124004A9284603F081FB6020ADF800000120ADF802000920ADF806004E
:205AC000ADF808406946284603F0ACFA0821284603F0E8FA0121284603F060FA4020ADF8D5
:205AE0001C0018208DF81F0003208DF81E0007A90548FFF739FF0121284603F05CFA09B02B
:205B000030BD000000080040000C01400549096889B201EBC000044901EB4000008980B229
:205B200070470000505C0040006000400549096889B201EBC000044901EB40008089C0F347
:205B400009007047505C0040006000400449096889B201EBC000034931F8100080B27047E6
:205B6000505C00400060004030B5034647F6FF74234414780020C4EB04455478C3EB032310
:205B8000C4EB04449D4203D89C4201D300297DD09C4206D29478C4EB04449C4201D3012997
:205BA00079D09478C4EB04449C4206D2D478C4EB04449C4201D302296DD0D478C4EB044443
:205BC0009C4206D21479C4EB04449C4201D3032961D01479C4EB04449C4206D25479C4EBC6
:205BE00004449C4201D3042955D05479C4EB04449C4206D29479C4EB04449C4201D30529FB
:205C000049D09479C4EB04449C4206D2D479C4EB04449C4201D306293DD0D479C4EB04443B
:205C20009C4206D2147AC4EB04449C4201D3072931D0147AC4EB04449C4206D2547AC4EB8E
:205C400004449C4201D3082925D0547AC4EB04449C4206D2947AC4EB04449C4201D30929C0
:205C600019D0947AC4EB04449C4206D2D47AC4EB04449C4201D30A290DD0D47AC4EB044434
:205C80009C4209D2127BC2EB024200E003E09A4202D30B2900D1012030BD0000014988680C
:205CA000C96870472000002030B5ADF5657D6846FEF75EFF1A230949002004460DF1020258
:205CC000155C01F8105001EB4005401CC0B26C709842F5D30DF5657D30BD0000D6030020B3
:205CE00008B56846FCF71CFF9DF801003849002801D0024601E04FF0010281F868200CD0D3
:205D0000A0F101004FEAE07200EB52704FEAE0004FEAC00000F1080001E04FF0000081F815
:205D200070009DF80000C20701D0302200E0042281F82920820701D5312200E0042281F879
:205D40002B20420701D5322200E0042281F82D20020701D5332200E0042281F82F20C206EF
:205D600001D5342200E0042281F83120820601D5352200E0042281F83320420601D536222A
:205D800000E0042281F83520000601D5362000E0042081F837009DF80200C20700D03922BE
:205DA00081F84520820701D5392200E0002281F85820420701D5392200E0002281F85C20E7
:205DC000000701D5392000E0002081F8600008BDF80200200A4810B50168001D0468001DAF
:205DE000006808180BD00822064900F059FC054920460422BDE81040103100F051BC10BDA8
:205E0000E8F7FF1F0A04002000B5ADF5657D6846FEF7AEFE0648BDF844130172090A41723C
:205E2000BDF846138172090AC1720DF5657D00BDBD020020FEE7000008B5242001F09CFE2A
:205E40001948002102880092520504D5028822F4806202800091009A920504D5028822F435
:205E6000806202800091009AD20504D5028822F4807202800091009A120504D5028822F414
:205E800000620280009108481438018841F400410180018821F40041018000F08FF9BDE8F4
:205EA0000840242001F0B6BD145400400029018802D041F4806101E021F4806101807047A1
:205EC00002460020938A128B43EA024323F07F42914300D1012070470029018802D041F028
:205EE000010101E021F00101018070470029018802D041F4807101E021F4807101807047AB
:205F00000029018802D041F4007101E021F40071018070470CB50246002000920A0F21F0D3
:205F20007F41019202D0009A143202E0009A090C1832009212680A4200D001200CBD002A45
:205F4000828801D00A4300E08A4382807047000070B50446808886B00D4620F03F066846B0
:205F600001F02AFB27490298B0FBF1F189B20E43A680228822F001022280234B2A689A4285
:205F80001CD85200B0FBF2F080B2042800D20420491C2184A083208840F00100208021888B
:205FA0004FF6F5300140A8886A89104308432080A88929890843208106B070BDEB88A3F518
:205FC0003F46FF3E0BD002EBC20303EB0212B0FBF2F080B240F48040020506D007E002EB0C
:205FE0004202B0FBF2F080B2F6E740F001004FF4967251434FF47A72B1FBF2F140F400407F
:020000040800F2
:20600000C6E7000040420F00A0860100B1F5006F018803D021F400610180704741F4006166
:20602000FAE700002DE9FF5F5C4F8B4681464FF47A741E46254601213846FFF737FF0121DA
:206040003846FFF753FFDFF85881BA46474641465046FFF735FFA0B3002D31D04FEA4909EA
:20606000254609F0FF010022D046504600F09CF8DFF830A140465146FFF722FF28B3002D86
:206080001ED025465946404600F096F8DFF814A10AF1020A51464046FFF712FFC0B1002DAF
:2060A00078D0254601214046FFF72AFFC2464FF4003841465046FFF72DFF60B16D1EF8D13F
:2060C00068E0FFE76D1EC1D164E06D1ED2D161E06D1EDFD15EE03DB3254601215046FFF740
:2060E00005FF39465046FFF7EBFED8B1E5B1274609F0FF0101225546504600F055F8DFF8BB
:20610000A09009F1010949462846FFF7D9FE60B157B1DFF88C90002709F13F09A346A6F18C
:20612000020A20E06D1EDCD134E07F1EEBD131E049462846FFF7C4FE20B314B317485C464D
:20614000103000880299C8550E9850B1574508D100212846FFF7AAFE4FF2FF712846FFF761
:2061600055FF7F1CFFB2B742E2D301212846FFF7C7FE464631462846FFF7CCFE28B1641EFA
:20618000F8D107E0641ED3D104E01CB1002004B0BDE8F09F4FF0FF30F9E70000005400408E
:2061A000010003008200070012B141F0010101E001F0FE0101827047018270471FB5012121
:2061C000480501F0E1F90121084601F0D1F94FF48060ADF80A000001ADF80C00114800900F
:2061E0004BF6FF70ADF806000020ADF8040007200D4CADF8080069462046FFF7A9FE01217A
:206200002046FFF769FE012211022046FFF797FE06490120C1F80001044930201C3181F807
:2062200000041FBD801A06000054004004E000E02DE9FF5F324D07464FF47A74984692465F
:20624000264601212846FFF731FE01212846FFF74DFEDFF8B09028464946FFF731FE08B952
:20626000761EF8D17806010E264600222846FFF79BFF254F4FF0FF3B39462846FFF720FEBA
:2062800080B196B3264628460199FFF795FF1E4FBF1C39462846FFF713FE30B12EB3002662
:2062A000A14613E0761EE7D128E0761EF1D125E01AF806102846FFF77FFF39462846FFF768
:2062C000FFFD98B18CB1761C4C46B6B24645EFD301212846FFF714FE4FF40036314628466D
:2062E000FFF718FE28B1641EF8D107E0641EE4D104E01CB1002004B0BDE8F09F5846FAE718
:206300000054004001000300820007002DE9FC5F07460121042001F043F90121082001F0F0
:206320003FF90121102001F03BF90121084601F037F90121BC48FFF769FB0121BB48FFF782
:2063400065FB01210220FFF761FB0121B848FFF75DFB4FF48050ADF800004FF01009B54DC5
:206360008DF8039001268DF8026069462846FFF7FBFA6814B04CADF8000069462046FFF7C7
:20638000F3FAAC4A4FF496780C324FF4B1730AE0106880F480501060E06880F40050E060C2
:2063A0004046FEF7CFFB3888B3EB101FF0D1A3494FF044300860091D0860A04B4FF0000A81
:2063C0000C33C3F800A0AB4628609A4B1B1D1860C2F800A020606060C4F80CA0984D544694
:2063E0004FF04808381990F9200001283DD002282ED0042839D003283AD005283CD00728E4
:206400003DD009284FD0082860D0172876D0182872D00A2871D00C286FD00D286DD00E282A
:206420006BD00F2869D0102867D00B2879D0112863D0122876D0132875D0142874D015289D
:2064400073D0162872D0062871D0002870D025E028200EE08DF8026005EBC4006946808815
:20646000ADF8000055F8340016E08DF80380F1E714208DF80300EDE78DF803A0EAE7032074
:206480008DF8020005EBC40069468088ADF8000018208DF803005846FFF766FA641C1E2CE7
:2064A000A0DBBDE8FC9F0F2CF8D103208DF8020063486946B0F87C00ADF8000004208DF8A7
:2064C00003005846FFF750FA10248BE7102CE5D103208DF802005A486946B0F88400ADF877
:2064E000000018208DF803005846FFF73DFA01F0B7FD112476E701E01BE035E0132CCDD10C
:2065000003208DF802004E486946B0F89C00ADF800001C208DF803005846FFF725FA1424F4
:2065200060E71BE038E039E03DE03FE055E06DE073E0142CB2D103208DF802004048694633
:20654000B0F8A400ADF800001C208DF803005846FFF70AFAFFF732FE152443E7112C9DD1BA
:20656000FFF78CFA12243DE78DF8039003208DF8020005EBC40001908088ADF8000055F844
:2065800034006946FFF7F0F901980122818855F83400FFF76EFA81E7042000E018208DF86C
:2065A000030003203DE08DF80390FAE78DF80390032005EBC4018DF8020001918888ADF8E1
:2065C000000055F834006946FFF7CEF955F83400C268019989888A4316E014208DF80300F9
:2065E000032005EBC4018DF8020001918888ADF8000055F834006946FFF7B6F955F834009F
:20660000C268019989880A43C26047E7082C01D0092CC0D18DF80380C3E728208DF80300BB
:2066200002208DF8020017E7000130000002300000081A00000C0140001001400008014047
:206640003000002010B5134C2068017A022904D0042902D0062905D015E0FEF7E5F8206872
:20666000007A11E04178052909D10178490606D1C07801F07DFD08480068006A8047074874
:20668000006880688047082021680872BDE8104000F028BF38050020400500203C050020C9
:2066A000F0B500230A24302537261F4611E000BFB4EB107F02D905EB107C01E006EB107C3A
:2066C00001F813C001EB430C00015B1C8CF80170DBB29342ECD3F0BDF0B505460120002344
:2066E00002EB42061C461A4631F91270521CD2B23C44082AF8D3E21704EB5272D4100022D6
:2067000031F91270521C3F1B07FB0733D2B2082AF6D3DA1703EB5272D2107643964200DA5A
:206720000020072201EB420333F8023C21F81230521E12F0FF02F5D10D80F0BD2DE9F0475B
:206740004FF0FF363E4C354600200B1893F82030152B21D154F83030DD6804EBC007BF8882
:20676000BD43DD6045B20023CF1897F82070162F0ED154F83370D7F80CC004EBC308B8F8A4
:2067800004804CEA080CC7F80CC017787F1C17705B1CDBB21E2BE7D3401CC0B21E28D4D32D
:2067A000284F002097F9003001EB000C9CF820C0BCF1150F3FD1984201DCA8423BD154F83C
:2067C0003030D3F80CC004EBC008B8F804804CEA080CC3F80CC0DFF870800023A246CC1850
:2067E00094F82040162C15D17C7818F804C0641C7C70BCF1000F5AF833C0DCF80C900AEBEB
:20680000C304A48802D029EA040901E049EA0409CCF80C905B1CDBB21E2BE0D311787A7897
:20682000914201D800217970A84202D13E70BDE8F0873870FBE7401CC0B21E28B4D3F6E719
:2068400030000020BA02002094160020F0B50F4D0F4B00200C1894F82040142C10D114780A
:206860002C5D002C53F83040E66803EBC007BF8801D03E4300E0BE43E6601478641C147055
:20688000401CC0B21E28E5D3F0BD0000941600203000002030B50F4B0F4C002100EB410579
:2068A00095F95323002A0FDB95F8545303EBC20205F007051279012D02D0C2F3001202E0A5
:2068C00042F30012521C6254491CC9B21829E5D330BD0000B41100209416002018B50446C1
:2068E00000208DF800002046FFF7D4FF6A4621460448FFF723FF6A4621460248FFF7A6FF4D
:2069000018BD0000941600202DE9F0470446994617460E46312001F02FF90025FFF7BEF975
:20692000804601464B463A46204600F00FFA09EB4900C21992F82F0100F01F01FC481F296C
:2069400072D2DFE801F010294354627979797910787878781076767676747474747171FD9E
:20696000FDFDFDFCFB002079C0F3411101295BD002295AD000F00101C0F34002914208D946
:2069800020F0600000F1200161F38201C4F80080D5E161F304109CE12079C0F341110129FF
:2069A000E5D0022941D000F00101C0F3400291423AD920F0600020300111491C61F382000C
:2069C000810861F3C300C4F8008082E12079C0F341110129CBD0022927D000F00101C0F34E
:2069E000400291421ED000BF20F06000CBE02079C0F341110129BAD0022916D000F0010165
:206A0000C0F340029142EFD80CE02079C0F341110129ACD0022908D000F00101C0F34002CD
:206A20009142E1D3C108B4E7D2E08108B1E7032502E0022500E001252179C1F34113012B93
:206A400019D0022B13D001F00103C1F3400C63450ED921F0600101F1200363F382039910AE
:206A6000491C61F3C303C4F80080237103E08B0863F30411217192F82F1101F01F0105294B
:206A800026D00A2924D00F2922D0132920D0062928D00B2926D0102924D0142922D00729A6
:206AA0002AD00C2928D0112926D0152924D0715D21F0010171552279C2F30012114371552A
:206AC00011F0FF0F86D0002205B3012D39D037E1715D21F0080171552279C2F3001241EAED
:206AE000C201ECE7715D21F0040171552279C2F3001241EA8201E2E7715D21F002017155D5
:206B00002279C2F3001241EA4201D8E75FF0000101EB41033B4493F82F3103F01F03092BB3
:206B200007D100EBC1031C7924F07D041C7140F83120491CC9B28029EAD301E192E048E0CC
:206B400016E0002101EB41033B4493F82F3103F01F030E2B07D100EBC1031C7924F07D0485
:206B60001C7140F83120491CC9B28029EAD3E7E02179C1F34113012B2AD0022B09D0C80755
:206B800026D021F06000203040F00400C4F800809DE08B0863F304112171002101EB410370
:206BA0003B4492F82F4193F82F3104F01F0403F01F03A34208D1494506D000EBC1042379D7
:206BC000DD0865F304132371491CC9B28029E5D3B6E02179C1F34113012B64D0022B17D0E0
:206BE00001F00103C1F340018B425CD90023194601EB41043C4492F92E6194F92E51B54259
:206C000016D194F82F4104F01F041D2C02D00FE0880892E000EBC10425796E0702D515F0CF
:206C2000600F01D0F3BB03E025F01C0323710123491CC9B28029DBD3ABB392F92E21002107
:206C400001EB41033B4493F92E41944205D193F82F3103F01F031D2B5CD0491CC9B28029E1
:206C6000EED36DE02179C1F34113012B68D0022BCED001F00103C1F34005AB425AD9002304
:206C80004FEA030101EB41043C4492F92E6194F92E51B54223D194F82F4104F01F041E2C98
:206CA0001DD101E009E042E000EBC10425796E0702D515F0600F0ED08BB100EBC102127999
:206CC00040F8318022F06002203242F0040020F00800207134E025F00C0323710123491CD1
:206CE000C9B28029CED313B392F92E21002100BF01EB41033B4493F92E41944205D193F86E
:206D00002F3103F01F031E2B04D0491CC9B28029EED315E000EBC1031A7940F8318022F065
:206D20006002203222F0080040F00400187107E0B4110020C80703D1C80860F3041121718F
:206D4000BDE8F047312000F065BE0000F0B503EB4303134493F830416309012B04D0022B2E
:206D600005D0032B19D105E0B2F8AE3204E0B2F8B03201E0B2F8B2327BB100BFC4F38204B0
:206D8000012C0CD0022C0DD0032C0ED000220479C4F34115012D0BD015E06423EEE7B2F822
:206DA000AE22F4E7B2F8B022F1E7B2F8B222EEE706688E1B964206D99F18BE4203D224F013
:206DC0006001403108E0022D07D105681A44491B914202D924F060010171F0BD427A01EBD9
:206DE00041010844022A017B407B04D001F00F0140EA01207047C906090D41EA50007047B4
:206E0000F0B4002280F82320012480F8244080F8251090F90850194B53F83520D66803EB32
:206E2000C5039B889E43D660437A022B10D001EB4102024402F10B00032B0FD0042B01D006
:206E4000052B18D1C1F380039B1DD372890109E00023022200F10C010B3007E0D47201299B
