:020000040800F2
:1020000000500020EDE3000819A400081DA40008FA
:1020100021A4000825A4000829A40008000000004D
:102020000000000000000000000000002DA40008D7
:1020300031A400080000000035A4000839A40008FD
:1020400035E4000835E4000835E4000835E400080C
:1020500035E4000835E4000835E4000835E40008FC
:1020600035E4000835E4000835E4000835E40008EC
:1020700045AB000869AD000895AE0008CDB2000878
:1020800035E4000835E4000835E4000835E40008CC
:10209000D1B5000835E4000835E4000835E400084F
:1020A00035E4000835E4000835E4000835E40008AC
:1020B0004DA4000835E4000835E4000835E40008C4
:1020C00035E4000835E4000845B5000835E40008AB
:1020D00035E4000835E4000835E4000835E400087C
:1020E00035E4000835E4000835E40008000000008D
:1020F00000000000000000000000000000000000E0
:0C21000000000000000000005FF808F183
:102110000348044B834202D0034B03B11847704776
:10212000FC040020FC0400200000000005480649D3
:102130000B1AD90F01EBA301491002D0034B03B1D5
:1021400018477047FC040020FC0400200000000039
:1021500010B5064C237843B9FFF7DAFF044B13B1EF
:102160000448AFF300800123237010BD0005002058
:102170000000000038E4000808B5044B1BB1044916
:102180000448AFF30080BDE80840CFE7000000003E
:102190000405002038E4000870B50D4E0D4D761B87
:1021A000B61006D00024013455F8043B9847A642E7
:1021B000F9D1094E094D0CF03FF9761BB61006D047
:1021C0000024013455F8043B9847A642F9D170BD6C
:1021D00008E8000808E800080CE8000808E800081B
:1021E000F0B4860746D0541E002A3CD0CAB203463B
:1021F00002E014F1FF3436D303F8012B9D07F8D128
:10220000032C29D9CDB245EA05250F2C45EA054511
:1022100033D9A4F11006360903F1200707EB06179E
:1022200003F1100242E9045542E902551032BA4264
:10223000F8D1721C14F00C0F03EB021204F00F061D
:1022400013D0331F23F003030433134442F8045B19
:102250009342FBD106F003042CB1C9B21C4403F82D
:10226000011B9C42FBD1F0BC704734461346002C46
:10227000F3D1F8E714460346C2E71A462646E0E7DC
:1022800080EA010C1CF0030F37D110F0030C20F092
:10229000030021F0030150F8042B08BF51F8043B60
:1022A0000ED08CF0030C6FF07F434FEACC0C23FA76
:1022B0000CFC51F8043B42EA0C0243EA0C0300BF59
:1022C000A2F1013C9A4201BF2CEA020C1CF0803FB3
:1022D00050F8042B51F8043BF2D04FEA02604FEA69
:1022E0001222012828BFB0EB036F08BF1B0AF4D0ED
:1022F00003F0FF03000EC01A704710F0030F0AD05E
:1023000010F8012B11F8013B012A28BF9A42F4D0A2
:10231000A2EB030070474DF8045D50F8042B01F068
:10232000030521F0030151F8043B022D26D04DD8BE
:1023300022F07F45B5EB132FA2F1013C2CEA020CF1
:102340000DD11CF0803C08BF51F8043B0AD185EA4E
:102350000205B5EB036F0CD150F8042BE8E74FEA08
:1023600013235BE03CF07F4C54D10B784FEA1265AD
:1023700054E04FEA126503F0FF034FE04FEA0245D5
:10238000A2F1013C4FEA15452CEA020CB5EB134FC4
:1023900018D11CF0803C08BF51F8043B07D185EAF6
:1023A0000205B5EB034F09D150F8042BE6E75FEACD
:1023B0000C4C2FD10B884FEA12452FE04FEA034314
:1023C0004FEA12454FEA134328E000BF02F0FF0531
:1023D000B5EB136FA2F1013C2CEA020C0DD11CF0FD
:1023E000803C08BF51F8043B0AD185EA0205B5EBF1
:1023F000032F0AD150F8042BE8E74FEA13630DE0EE
:1024000012F0FF0F06D051F8043B4FEA122523F0DB
:102410007F4303E04FF0000020BC704705F0FF024F
:1024200003F0FF00012828BF904204BF2D0A1B0AB9
:10243000F4D0A2EB000020BC704700BF00F000B851
:10244000F8B50D4621F00041B1F1FF4F034614DC11
:1024500020F00046B6F1FF4F07460EDCB5F17E5F77
:102460003ED0AC1704F0020444EAD07456B9022CF2
:1024700029D0032C00D13148F8BD1946284600F078
:10248000C3FDF8BDD9B1B1F1FF4F1ED0B6F1FF4F7A
:1024900015D0711AC9153C2926DC002D30DA3C31E3
:1024A0002EDA0020012C3CD0022C32D0002CE3D0BC
:1024B000234900F0A9FD234900F0A4FDF8BD002F39
:1024C0001CDB2148F8BD1F48F8BDB6F1FF4F0DD009
:1024D000022CF8D0032CCED0012C25D00020F8BD42
:1024E000BDE8F84000F03CB81748DBE7022C22D0EA
:1024F000032C1ED0012C1AD01448F8BD1448F8BD86
:102500002946184600F03CFF00F036F900F028F8A4
:10251000C8E70B4900F078FD01460A4800F072FD5B
:10252000F8BD00F10040F8BD4FF00040F8BD09488B
:10253000F8BD0948F8BD0948F8BD00BFDB0F49C028
:102540002EBDBB33DB0F4940DB0FC93FDB0F493FDB
:10255000DB0FC9BFDB0F49BFE4CB16C0E4CB16408D
:102560002DE9F04120F00045B5F1A14F04460646A3
:1025700008DBB5F1FF4F73DC002840F381806B4826
:10258000BDE8F0816A4B9D4200F38280B5F1445F63
:102590006BDB4FF0FF372146204600F03DFE014641
:1025A000804600F039FE0546624900F035FE62497A
:1025B00000F02AFD294600F02FFE604900F024FDBE
:1025C000294600F029FE5E4900F01EFD294600F074
:1025D00023FE5C4900F018FD294600F01DFE5A4913
:1025E00000F012FD414600F017FE5849804628468B
:1025F00000F012FE564900F005FD294600F00CFEE1
:10260000544900F0FFFC294600F006FE524900F054
:10261000F9FC294600F000FE504900F0F3FC294681
:1026200000F0FAFD0146404600F0EEFC214600F0C5
:10263000F3FD7B1C014626D0494D05EB8703196944
:1026400000F0E0FC214600F0DDFC014655F82700D3
:1026500000F0D8FC002E93DA00F10040BDE8F081D4
:10266000014600F0D1FCBDE8F0813E4900F0CCFC11
:102670004FF07E5100F08CFF00288AD020467FE783
:102680003948BDE8F081204600F0BCFCBDE8F0818F
:1026900000F072F8354B04469D4217DCA3F5D003D9
:1026A0009D4232DC014600F0AFFC4FF07E5100F05D
:1026B000A9FC4FF080410546204600F0A5FC0146EC
:1026C000284600F05DFE0027044664E7284B9D4243
:1026D00014DC4FF07F5100F095FC4FF07F51054620
:1026E000204600F099FD4FF07E5100F08DFC014630
:1026F000284600F045FE022704464CE701461D48E7
:1027000000F03EFE0327044645E74FF07E5100F0FF
:1027100079FC4FF07E510546204600F075FC0146DD
:10272000284600F02DFE0127044634E7DB0FC93FA1
:10273000FFFFDF3ED769853C59DA4B3D356B883D5D
:102740006E2EBA3D2549123EABAAAA3E21A215BD66
:102750006BF16E3D95879D3D388EE33DCDCC4C3E73
:1027600050E40008CAF24971DB0FC9BFFFFF973F71
:10277000FFFF1B40000080BF20F00040704700BFFB
:1027800081F0004102E000BF83F0004330B54FEA22
:1027900041044FEA430594EA050F08BF90EA020F8F
:1027A0001FBF54EA000C55EA020C7FEA645C7FEA22
:1027B000655C00F0E2804FEA5454D4EB5555B8BF45
:1027C0006D420CDD2C4480EA020281EA030382EAB6
:1027D000000083EA010180EA020281EA0303362D48
:1027E00088BF30BD11F0004F4FEA01314FF4801C1B
:1027F0004CEA113102D0404261EB410113F0004F2D
:102800004FEA03334CEA133302D0524263EB4303E3
:1028100094EA050F00F0A780A4F10104D5F1200E81
:102820000DDB02FA0EFC22FA05F2801841F10001DC
:1028300003FA0EF2801843FA05F359410EE0A5F1B0
:1028400020050EF1200E012A03FA0EFC28BF4CF0E1
:10285000020C43FA05F3C01851EBE37101F0004597
:1028600007D54FF0000EDCF1000C7EEB00006EEBA4
:102870000101B1F5801F1BD3B1F5001F0CD349082E
:102880005FEA30004FEA3C0C04F101044FEA445285
:1028900012F5800F80F09A80BCF1004F08BF5FEA0C
:1028A000500C50F1000041EB045141EA050130BDEC
:1028B0005FEA4C0C404141EB0101013C28BFB1F5FE
:1028C000801FE9D291F0000F04BF01460020B1FA49
:1028D00081F308BF2033A3F10B03B3F120020CDA1C
:1028E0000C3208DD02F1140CC2F10C0201FA0CF0FA
:1028F00021FA02F10CE002F11402D8BFC2F1200C5F
:1029000001FA02F120FA0CFCDCBF41EA0C01904014
:10291000E41AA2BF01EB0451294330BD6FEA04045D
:102920001F3C1CDA0C340EDC04F11404C4F1200248
:1029300020FA04F001FA02F340EA030021FA04F35A
:1029400045EA030130BDC4F10C04C4F1200220FAB1
:1029500002F001FA04F340EA0300294630BD21FAEF
:1029600004F0294630BD94F0000F83F4801306BFB5
:1029700081F480110134013D4EE77FEA645C18BFA9
:102980007FEA655C29D094EA050F08BF90EA020F40
:1029900005D054EA000C04BF1946104630BD91EA38
:1029A000030F1EBF0021002030BD5FEA545C05D13B
:1029B0004000494128BF41F0004130BD14F580047A
:1029C0003CBF01F5801130BD01F0004545F0FE41EE
:1029D00041F470014FF0000030BD7FEA645C1ABF23
:1029E000194610467FEA655C1CBF0B46024650EA5A
:1029F000013406BF52EA033591EA030F41F4002186
:102A000030BD00BF90F0000F04BF0021704730B50B
:102A10004FF4806404F132044FF000054FF00001E0
:102A200050E700BF90F0000F04BF0021704730B5A1
:102A30004FF4806404F1320410F0004548BF404276
:102A40004FF000013EE700BF42004FEAE2014FEACB
:102A500031014FEA02701FBF12F07F4393F07F4FA6
:102A600081F06051704732F07F4208BF704793F0A9
:102A70007F4F04BF41F40021704730B54FF46074BC
:102A800001F0004521F000411CE700BF50EA0102BF
:102A900008BF704730B54FF000050AE050EA010268
:102AA00008BF704730B511F0004502D5404261EBD8
:102AB00041014FF4806404F132045FEA915C3FF419
:102AC000D8AE4FF003025FEADC0C18BF03325FEAB6
:102AD000DC0C18BF033202EBDC02C2F1200300FA67
:102AE00003FC20FA02F001FA03FE40EA0E0021FA8C
:102AF00002F11444BDE600BF70B54FF0FF0C4CF47A
:102B0000E06C1CEA11541DBF1CEA135594EA0C0F2B
:102B100095EA0C0F00F0DEF82C4481EA030621EA66
:102B20004C5123EA4C5350EA013518BF52EA0335A1
:102B300041F4801143F4801338D0A0FB02CE4FF053
:102B40000005E1FB02E506F00042E0FB03E54FF083
:102B50000006E1FB03569CF0000F18BF4EF0010E7B
:102B6000A4F1FF04B6F5007F64F5407404D25FEA77
:102B70004E0E6D4146EB060642EAC62141EA55512A
:102B80004FEAC52040EA5E504FEACE2EB4F1FD0C6C
:102B900088BFBCF5E06F1ED8BEF1004F08BF5FEAEA
:102BA000500E50F1000041EB045170BD06F000469C
:102BB00046EA010140EA020081EA0301B4EB5C0449
:102BC000C2BFD4EB0C0541EA045170BD41F4801141
:102BD0004FF0000E013C00F3AB8014F1360FDEBF66
:102BE000002001F0004170BDC4F10004203C35DA42
:102BF0000C341BDC04F11404C4F1200500FA05F3C5
:102C000020FA04F001FA05F240EA020001F0004265
:102C100021F0004110EBD37021FA04F642EB0601DB
:102C20005EEA430E08BF20EAD37070BDC4F10C0405
:102C3000C4F1200500FA04F320FA05F001FA04F2C9
:102C400040EA020001F0004110EBD37041F10001B5
:102C50005EEA430E08BF20EAD37070BDC4F12005C0
:102C600000FA05F24EEA020E20FA04F301FA05F228
:102C700043EA020321FA04F001F0004121FA04F2D0
:102C800020EA020000EBD3705EEA430E08BF20EAA0
:102C9000D37070BD94F0000F0FD101F000464000DA
:102CA00041EB010111F4801F08BF013CF7D041EA5C
:102CB000060195F0000F18BF704703F00046520060
:102CC00043EB030313F4801F08BF013DF7D043EA31
:102CD0000603704794EA0C0F0CEA135518BF95EAE7
:102CE0000C0F0CD050EA410618BF52EA4306D1D16E
:102CF00081EA030101F000414FF0000070BD50EA8D
:102D0000410606BF1046194652EA430619D094EA16
:102D10000C0F02D150EA013613D195EA0C0F05D100
:102D200052EA03361CBF104619460AD181EA030154
:102D300001F0004141F0FE4141F470014FF000000C
:102D400070BD41F0FE4141F4780170BD70B54FF0A7
:102D5000FF0C4CF4E06C1CEA11541DBF1CEA135527
:102D600094EA0C0F95EA0C0F00F0A7F8A4EB050409
:102D700081EA030E52EA03354FEA013100F0888000
:102D80004FEA03334FF0805545EA131343EA1263C9
:102D90004FEA022245EA111545EA10654FEA00267E
:102DA0000EF000419D4208BF964244F1FD0404F537
:102DB000407402D25B084FEA3202B61A65EB030593
:102DC0005B084FEA32024FF480104FF4002CB6EB50
:102DD000020E75EB030E22BFB61A754640EA0C00D0
:102DE0005B084FEA3202B6EB020E75EB030E22BF10
:102DF000B61A754640EA5C005B084FEA3202B6EB51
:102E0000020E75EB030E22BFB61A754640EA9C000F
:102E10005B084FEA3202B6EB020E75EB030E22BFDF
:102E2000B61A754640EADC0055EA060E18D04FEA9D
:102E3000051545EA16754FEA06164FEAC30343EA3D
:102E400052734FEAC2025FEA1C1CC0D111F4801F0A
:102E50000BD141EA00014FF000004FF0004CB6E703
:102E600011F4801F04BF01430020B4F1FD0C88BFA2
:102E7000BCF5E06F3FF6AFAEB5EB030C04BFB6EBAD
:102E8000020C5FEA500C50F1000041EB045170BDA0
:102E90000EF0004E4EEA113114EB5C04C2BFD4EBCD
:102EA0000C0541EA045170BD41F480114FF0000E51
:102EB000013C90E645EA060E8DE60CEA135594EACD
:102EC0000C0F08BF95EA0C0F3FF43BAF94EA0C0FD0
:102ED0000AD150EA01347FF434AF95EA0C0F7FF445
:102EE00025AF104619462CE795EA0C0F06D152EA99
:102EF00003353FF4FDAE1046194622E750EA41067D
:102F000018BF52EA43067FF4C5AE50EA41047FF48D
:102F10000DAF52EA43057FF4EBAE12E74A0011D23F
:102F200012F5001211D20DD56FF47873B3EB625223
:102F30000ED44FEAC12343F0004343EA505323FA2F
:102F400002F070474FF00000704750EA013002D1A4
:102F50004FF0FF3070474FF0000070474FEA4102DA
:102F6000B2F1E04324BFB3F5001CDCF1FE5C0DD9E7
:102F700001F0004C4FEAC0024CEA5070B2F1004F31
:102F800040EB830008BF20F00100704711F0804F34
:102F900021D113F13872BCBF01F00040704741F4F9
:102FA00080114FEA5252C2F11802C2F1200C10FAFD
:102FB0000CF320FA02F018BF40F001004FEAC123E1
:102FC0004FEAD32303FA0CFC40EA0C0023FA02F385
:102FD0004FEA4303CCE77FEA625307D150EA01335B
:102FE0001EBF4FF0FE4040F44000704701F000402B
:102FF00040F0FE4040F40000704700BF80F0004009
:1030000002E000BF81F0004142001FBF5FEA4103C0
:1030100092EA030F7FEA226C7FEA236C6AD04FEAC0
:103020001262D2EB1363C1BFD21841404840414005
:10303000B8BF5B42192B88BF704710F0004F40F4B7
:10304000000020F07F4018BF404211F0004F41F4D3
:10305000000121F07F4118BF494292EA030F3FD09F
:10306000A2F1010241FA03FC10EB0C00C3F12003B2
:1030700001FA03F100F0004302D5494260EB400041
:10308000B0F5000F13D3B0F1807F06D340084FEAAC
:10309000310102F10102FE2A51D2B1F1004F40EBA1
:1030A000C25008BF20F0010040EA03007047490009
:1030B00040EB0000013A28BFB0F5000FEDD2B0FAA6
:1030C00080FCACF1080CB2EB0C0200FA0CF0AABFC9
:1030D00000EBC25052421843BCBFD0401843704767
:1030E00092F0000F81F4000106BF80F4000001326D
:1030F000013BB5E74FEA41037FEA226C18BF7FEA44
:10310000236C21D092EA030F04D092F0000F08BF85
:103110000846704790EA010F1CBF0020704712F06C
:103120007F4F04D1400028BF40F00040704712F1AB
:1031300000723CBF00F50000704700F0004343F010
:10314000FE4040F4000070477FEA226216BF084646
:103150007FEA23630146420206BF5FEA412390EA09
:10316000010F40F4800070474FF0000304E000BFFF
:1031700010F0004348BF40425FEA000C08BF7047B0
:1031800043F0964301464FF000001CE050EA010274
:1031900008BF70474FF000030AE000BF50EA010289
:1031A00008BF704711F0004302D5404261EB410176
:1031B0005FEA010C02BF84460146002043F0B6439B
:1031C00008BFA3F18053A3F50003BCFA8CF2083AC0
:1031D000A3EBC25310DB01FA02FC634400FA02FCC9
:1031E000C2F12002BCF1004F20FA02F243EB0200D0
:1031F00008BF20F00100704702F1200201FA02FC32
:10320000C2F1200250EA4C0021FA02F243EB020024
:1032100008BF20EADC7070474FF0FF0C1CEAD05268
:103220001EBF1CEAD15392EA0C0F93EA0C0F6FD029
:103230001A4480EA010C400218BF5FEA41211ED007
:103240004FF0006343EA501043EA5111A0FB0131F3
:103250000CF00040B1F5000F3EBF490041EAD371C8
:103260005B0040EA010062F17F02FD2A1DD8B3F144
:10327000004F40EBC25008BF20F00100704790F0B3
:10328000000F0CF0004C08BF49024CEA502040EA05
:1032900051207F3AC2BFD2F1FF0340EAC2507047CB
:1032A00040F400004FF00003013A5DDC12F1190F09
:1032B000DCBF00F000407047C2F10002410021FA7B
:1032C00002F1C2F1200200FA02FC5FEA310040F193
:1032D000000053EA4C0308BF20EADC70704792F00C
:1032E000000F00F0004C02BF400010F4000F013A44
:1032F000F9D040EA0C0093F0000F01F0004C02BF3F
:10330000490011F4000F013BF9D041EA0C018FE7AD
:103310000CEAD15392EA0C0F18BF93EA0C0F0AD0B3
:1033200030F0004C18BF31F0004CD8D180EA0100D9
:1033300000F00040704790F0000F17BF90F0004F72
:10334000084691F0000F91F0004F14D092EA0C0F54
:1033500001D142020FD193EA0C0F03D14B0218BFE7
:10336000084608D180EA010000F0004040F0FE402D
:1033700040F40000704740F0FE4040F440007047C9
:103380004FF0FF0C1CEAD0521EBF1CEAD15392EA48
:103390000C0F93EA0C0F69D0A2EB030280EA010C38
:1033A00049024FEA402037D04FF0805343EA1111D1
:1033B00043EA10130CF000408B4238BF5B0042F12F
:1033C0007D024FF4000C8B4224BF5B1A40EA0C00D4
:1033D000B3EB510F24BFA3EB510340EA5C00B3EB06
:1033E000910F24BFA3EB910340EA9C00B3EBD10FF4
:1033F00024BFA3EBD10340EADC001B0118BF5FEA46
:103400001C1CE0D1FD2A3FF650AF8B4240EBC2506E
:1034100008BF20F0010070470CF0004C4CEA50202F
:103420007F32C2BFD2F1FF0340EAC250704740F47E
:1034300000004FF00003013A37E792F0000F00F070
:10344000004C02BF400010F4000F013AF9D040EAEE
:103450000C0093F0000F01F0004C02BF490011F482
:10346000000F013BF9D041EA0C0195E70CEAD1537A
:1034700092EA0C0F08D142027FF47DAF93EA0C0F61
:103480007FF470AF084676E793EA0C0F04D14B0245
:103490003FF44CAF08466EE730F0004C18BF31F0F7
:1034A000004CCAD130F000427FF45CAF31F00043F1
:1034B0007FF43CAF5FE700BF4FF0FF3C06E000BF8A
:1034C0004FF0010C02E000BF4FF0010C4DF804CDAD
:1034D0004FEA40024FEA41037FEA226C18BF7FEABD
:1034E000236C11D001B052EA530C18BF90EA010FBF
:1034F00058BFB2EB030088BFC81738BF6FEAE1704E
:1035000018BF40F0010070477FEA226C02D15FEAE9
:10351000402C05D17FEA236CE4D15FEA412CE1D055
:103520005DF8040B704700BF844608466146FFE71C
:103530000FB5FFF7C9FF002848BF10F1000F0FBDFE
:103540004DF808EDFFF7F4FF0CBF012000205DF8F7
:1035500008FB00BF4DF808EDFFF7EAFF34BF01207C
:1035600000205DF808FB00BF4DF808EDFFF7E0FF15
:1035700094BF012000205DF808FB00BF4DF808ED66
:10358000FFF7D2FF94BF012000205DF808FB00BFC9
:103590004DF808EDFFF7C8FF34BF012000205DF8AB
:1035A00008FB00BF4FEA4002B2F1FE4F0FD34FF0CD
:1035B0009E03B3EB12620DD94FEA002343F00043A0
:1035C00010F0004F23FA02F018BF404270474FF04E
:1035D0000000704712F1610F01D1420205D110F0D5
:1035E000004008BF6FF0004070474FF00000704788
:1035F00090F90720643248D0354B01F5FF427F3205
:10360000F0B483FB0243D6171344C6EB23360A2ECD
:1036100058D041F6991404FB06F4A4F5FF45A4F52F
:10362000CC4433467F3D663C0136034493F9072082
:10363000284FC2EBC232520087FB023C0644A9422B
:103640004FEAE27096F90730C0EBAC1016DBC3EB23
:10365000C3335B0087FB0327A1424FEAE373C3EB4D
:10366000A7130EDC491B1B1A03FB01F3184AD917D9
:1036700082FB03421344C1EB2333184400B2F0BC75
:1036800070471846F0BC00B27047B0F90820124BE2
:103690009A42B1D1B0F90A20104B9A42ACD1B0F99C
:1036A0000C30B3F5A05FA7D143F62843B0F90E2044
:1036B0009A42A1D146F25043B0F910209A429BD1D0
:1036C0000846704747F6FB7446F262650923ACE78B
:1036D00017C003A01F85EB51B0C4FFFFD8ECFFFF5C
:1036E000013A70B4062A1ED8DFE802F031430455CF
:1036F00067791F00434B01F126021E4633F9264B22
:1037000000FB04F032F9024D548033F902599E4215
:1037100005FB0400F6D13C4AC31782FB0020C3EB33
:10372000601000B2088070BC7047384B01F126026F
:103730001E4633F9264B00FB04F032F9024D54804B
:1037400033F902599E4205FB0400F6D1E3E7304B02
:1037500001F126021E4633F9264B00FB04F032F934
:10376000024D548033F90259B34205FB0400F6D1EF
:10377000D1E7284B01F126021E4633F9264B00FB08
:1037800004F032F9024D548033F902599E4205FB90
:103790000400F6D1BFE7204B01F126021E4633F9A3
:1037A000264B00FB04F032F9024D548033F90259E4
:1037B0009E4205FB0400F6D1ADE7184B01F126024D
:1037C0001E4633F9264B00FB04F032F9024D5480BB
:1037D00033F902599E4205FB0400F6D19BE7104BDA
:1037E00001F126021E4633F9264B00FB04F032F9A4
:1037F000024D548033F902599E4205FB0400F6D174
:1038000089E700BF500000201F85EB51F000002029
:10381000000000202800002078000020A0000020E8
:10382000C800002001212DE9F04F0446ABB0084646
:1038300009F094FB01214FF4017009F09BFBFF217B
:1038400040F20113144D04F11F0A56460A224FF0AC
:10385000060BDFF8488004F13D09E97285F8331062
:1038600085F85B1085F8831085F8AB1085F8D310C8
:1038700085F8FB1085F823112B812B86A5F858308D
:10388000A5F88030A5F8A830A5F8D030A5F8F83014
:10389000A5F820311EE000BFE00B00201D05002030
:1038A0000B2B00F0C6810C2B00F0F8810D2B00F0E3
:1038B0002A820E2B00F07B820F2B00F0CC82102B83
:1038C00000F01D83112B00F06E83122B00F0D183CA
:1038D000B14546D0314616F9013F052BE0D194F9A8
:1038E00052301F39091B8B4200F03D8294F9703031
:1038F0008B4200F0388294F98E308B4200F0428285
:1039000094F9AC308B4200F03D8294F9CA308B427E
:1039100000F0428294F9E8308B4200F03D8294F945
:1039200006318B4203D094F924318B42D0D198F8E0
:103930000030072BCCD80020B64F03EB830197F85B
:1039400000C005EBC1010CF1010C013387F800C088
:1039500088F80030731EA3EB0A03B1450873CB72DD
:10396000B8D194F93530192B00F0C384A94B93F8E2
:1039700000B0BBF1000F00F05981A74B1A78002A64
:1039800000F0D4804FF0000CAF7A95F834E00A973D
:1039900095F9337095F90B00029795F832702E7BEC
:1039A0000D9795F95B7095F85C80039795F85A70C0
:1039B00095F88490109795F9837095F8ACA00497CA
:1039C00095F88270CDF860C0129795F9AB70CDF87C
:1039D00050C0059795F8AA70CDF844C01397CDF85C
:1039E00038C095F8D470CDF830C0CDF820C0CDF8EF
:1039F0002CC095F9D3306146069395F8D230CDF8B6
:103A000054B0179395F8FC301694009395F9FB3059
:103A10007446079395F8FA308346199395F8243144
:103A2000BE46019395F92331099395F822310F93FE
:103A3000634616B99B4500F0D8830020012A45D083
:103A40002CB9029FBB4204BF0120CDE90C01022A20
:103A50003CD0B8F1000F05D1039F9F4202D1012055
:103A600010910E90032A31D0B9F1000F05D1049FB7
:103A7000BB4204BF0120CDE91101042A26D0BAF1CE
:103A8000000F05D1059F9F4204BF0120CDE913100F
:103A9000052A1BD0BEF1000F05D1069F9F4204BF2F
:103AA0000120CDE91710062A10D0009F37B9079FD3
:103AB0009F4203D14FF0010C60461991072A05D0AF
:103AC000019F1FB9099F9F4200F08B8308B101310C
:103AD000C9B20133082BACD1DDE915B40B9B13B18E
:103AE0000F9B85F82231089B0BB10A9BAB720C9B94
:103AF00013B10D9B85F832300E9B13B1109B85F8E6
:103B00005A30119B13B1129B85F88230149B13B16C
:103B1000139B85F8AA30189B13B1179B85F8D230F8
:103B2000BCF1000F02D0199B85F8FA30002140F259
:103B3000011000234FF460221A91ADF86C001AA90D
:103B40003648CDE91C238DF878B008F041FD0121FD
:103B5000324808F06BFD94F92030052B00F06385A6
:103B6000012294F92130052B00F0318594F922309F
:103B7000052B00F00D8694F92330052B00F0D1853C
:103B800094F92430052B00F09F8594F92530052BFE
:103B900000F06D8594F92630052B00F0EB8494F944
:103BA0002730052B00F0BC841D4808F0B1FD002330
:103BB00080214FF480704FF400544FF48065154A13
:103BC000239312782793CDE921322993154A164B76
:103BD000249125901FA91248CDE91F2328942695EA
:103BE00008F02EFE01210D4808F016FD0B4808F0E4
:103BF00027FD0A4C204608F029FD0028FAD1074885
:103C000008F028FD054C204608F02AFD0028FAD1CE
:103C10000CE000BF1C0500201D0500200024014011
:103C2000080002404C240140800A00202BB0BDE86F
:103C3000F08F94F952301F39091B8B4200F0E78056
:103C400094F970308B4200F0E28094F98E308B4210
:103C500000F0EC8094F9AC308B4200F0E78094F9EE
:103C6000CA308B4200F0EC8094F9E8308B4200F0CF
:103C7000E78094F906318B4204D094F924318B42C9
:103C80007FF426AE98F80030072B3FF621AE0120D6
:103C900003EB830105EBC101034459E694F952306B
:103CA0001F39091B8B4200F0068194F970308B425A
:103CB00000F0018194F98E308B4200F00B8194F971
:103CC000AC308B4200F0068194F9CA308B4200F090
:103CD0000B8194F9E8308B4200F0068194F90631AB
:103CE0008B4204D094F924318B427FF4F1AD98F8E3
:103CF0000030072B3FF6ECAD0B2003EB830105EB07
:103D0000C101013324E694F952301F39091B8B425B
:103D100000F0258194F970308B4200F0208194F9F5
:103D20008E308B4200F02A8194F9AC308B4200F047
:103D3000258194F9CA308B4200F02A8194F9E83049
:103D40008B4200F0258194F906318B4204D094F91E
:103D500024318B427FF4BCAD98F80030072B3FF63E
:103D6000B7AD0220C9E798F80030072B7FF6E3AD26
:103D700094F98E308B423FF4C8AD94F9AC308B424D
:103D80007FF4C3AD98F80030072B7FF6D4AD94F9DB
:103D9000CA308B427FF4BEAD98F80030072B7FF617
:103DA000CAAD94F906318B427FF4BDAD90E594F92C
:103DB00052301F39091B8B4200F0378194F9703063
:103DC0008B4200F0328194F98E308B4200F03C81BE
:103DD00094F9AC308B4200F0378194F9CA308B42B1
:103DE00000F03C8194F9E8308B4200F0378194F97F
:103DF00006318B4204D094F924318B427FF468ADB4
:103E000098F80030072B3FF663AD032075E798F86C
:103E10000030072B7FF63BAF94F98E3099423FF488
:103E20001EAF94F9AC308B427FF419AF98F8003094
:103E3000072B7FF62CAF94F9CA308B427FF414AF76
:103E400098F80030072B7FF622AF94F906318B42A9
:103E50007FF413AF3CE594F952301F39091B8B42B4
:103E600000F0438194F970308B4200F0488194F95E
:103E70008E308B4200F04D8194F9AC308B4200F0D3
:103E8000528194F9CA308B4200F0578194F9E8309E
:103E90008B4200F05C8194F906318B4204D094F996
:103EA00024318B427FF414AD98F80030072B3FF695
:103EB0000FAD042021E798F80030072B7FF61CAFE8
:103EC00094F98E3099423FF4FFAE94F9AC308B42B6
:103ED0007FF4FAAE98F80030072B7FF60DAF94F917
:103EE000CA308B427FF4F5AE98F80030072B7FF68E
:103EF00003AF94F9063199427FF4F4AEE8E494F903
:103F000052301F39091B8B4200F02D8194F970301B
:103F10008B4200F0328194F98E308B4200F0378171
:103F200094F9AC308B4200F03C8194F9CA308B425A
:103F300000F0418194F9E8308B4200F0468194F919
:103F400006318B4204D094F924318B427FF4C0AC0B
:103F500098F80030072B3FF6BBAC0520CDE698F86B
:103F60000030072B7FF6FDAE94F98E308B423FF484
:103F7000E0AE94F9AC308B427FF4DBAE98F80030C1
:103F8000072B7FF6EEAE94F9CA308B427FF4D6AEA3
:103F900098F80030072B7FF6E4AE94F90631994289
:103FA0007FF4D5AE94E494F952301F39091B8B424B
:103FB00000F01F8194F970308B4200F0248194F955
:103FC0008E308B4200F0298194F9AC308B4200F0A6
:103FD0002E8194F9CA308B4200F0338194F9E83095
:103FE0008B4200F0388194F906318B4204D094F969
:103FF00024318B427FF46CAC98F80030072B3FF6ED
:1040000067AC03EB830305EBC301731EA3EB0A0349
:10401000CB72002081F80CB004F09EFF98F80030BD
:104020000A22013388F8003052E498F80030072B58
:104030007FF6EBAE94F98E3099423FF4CEAE94F910
:10404000AC308B427FF4C9AE98F80030072B7FF676
:10405000DCAE94F9CA308B427FF4C4AE98F80030DD
:10406000072B7FF6D2AE94F906318B427FF4C3AEB4
:104070002EE494F952301F39091B8B4200F0F7806F
:1040800094F970308B4200F0FC8094F98E308B42B2
:1040900000F0018194F9AC308B4200F0068194F974
:1040A000CA308B4200F00B8194F9E8308B4200F06B
:1040B000108194F906318B4204D094F924318B425B
:1040C0007FF406AC98F80030072B3FF601AC03EB09
:1040D0008300711E05EBC0000133A1EB0A010273DE
:1040E00088F80030C172FFF7F3BB98F80030072B57
:1040F0007FF6DFAE94F970308B427FF4B8AE98F85B
:104100000030072B7FF6D5AE94F98E308B427FF4CA
:10411000B3AE98F80030072B7FF6CBAE94F9AC30F5
:104120008B427FF4AEAE98F80030072B7FF6C1AE1D
:1041300094F9CA308B427FF4A9AE98F80030072B6F
:104140007FF6B7AE94F9E8308B427FF4A4AE98F8CE
:104150000030072B7FF6ADAE94F9063199427FF41B
:104160009EAEFFF7B5BB98F80030072B7FF6F5AE93
:1041700094F970308B427FF4CEAE98F80030072B64
:104180007FF6EBAE94F98E308B427FF4C9AE98F88F
:104190000030072B7FF6E1AE94F9AC308B427FF410
:1041A000C4AE98F80030072B7FF6D7AE94F9CA302A
:1041B0008B427FF4BFAE98F80030072B7FF6CDAE70
:1041C00094F9E8308B427FF4BAAE98F80030072BB0
:1041D0007FF6C3AE94F906318B427FF4B4AEFFF79D
:1041E00077BB01200F910B9071E401200A91089098
:1041F00024E498F80030072B7FF603AF94F9703071
:104200008B427FF4DCAE98F80030072B7FF6F9AED6
:1042100094F98E308B427FF4D7AE98F80030072B9C
:104220007FF6EFAE94F9AC308B427FF4D2AE98F8C3
:104230000030072B7FF6E5AE94F9CA308B427FF44D
:10424000CDAE98F80030072B7FF6DBAE94F9E8305E
:104250008B427FF4C8AE98F80030072B7FF6D1AEC2
:1042600094F9063199427FF4C2AEFFF731BB98F85A
:104270000030072B7FF62BAF94F970308B427FF420
:1042800004AF98F80030072B7FF621AF94F98E30F9
:104290008B427FF4FFAE98F80030072B7FF617AF04
:1042A00094F9AC308B427FF4FAAE98F80030072BCB
:1042B0007FF60DAF94F9CA308B427FF4F5AE98F8D3
:1042C0000030072B7FF603AF94F9E8308B427FF480
:1042D000F0AE98F80030072B7FF6F9AE94F906316E
:1042E00099423FF4F5AA94F924318B427FF4F0AA65
:1042F000E8E694F936301A2B7FF438AB94F9523053
:104300009E1C00F0A68294F97020023200F09B827D
:1043100094F98E20023200F0908294F9AC2002329F
:1043200000F0858294F9CA20023200F07A8294F972
:10433000E820023200F0588294F90621023200F09F
:10434000768394F92421023200F06B83981C00F0EC
:104350005B8394F97020023200F0508394F98E2030
:10436000023200F0458394F9AC20023200F03A8327
:1043700094F9CA20023200F02F8394F9E820023227
:1043800000F00D8394F90621023200F0688394F95D
:104390002421023200F05D83991C00F0FA8294F926
:1043A0007020023200F0EF8294F98E20023200F089
:1043B000E48294F9AC20023200F0D98294F9CA2048
:1043C000023200F0CE8294F9E820023200F0AC8292
:1043D00094F90621023200F0368394F92421023246
:1043E00000F02B839A1C00F0998294F9702002321D
:1043F00000F08E8294F98E20023200F0838294F9CC
:10440000AC20023200F0788294F9CA20023200F027
:104410006D8294F9E820023200F04B8294F9062173
:10442000023200F0288394F92421023200F01D8327
:10443000023300F0378294F97030023300F02B829F
:1044400094F98E30023300F01F8294F9AC300233BD
:1044500000F0138294F9CA30023300F0078294F915
:10446000E830023300F0FB8194F90631023300F0AA
:10447000D18294F9243102337FF478AA94F82A3156
:10448000362B08BF07227FF471AA43F2096C4FF064
:10449000FE08BA4EBA49307800EB800305EBC30E34
:1044A00001EBC301C2EB02138EF80B8004EB430354
:1044B000A1F804C0B3F93E304FEA800C13F5004F69
:1044C0004FEA021E00F0DF8203F5FF437F33C3EBA8
:1044D0000333DFF8B8825908A8FB0131C1F38F31EB
:1044E000AEEB020304EB4303B3F9423013F5004F84
:1044F00000F0C78203F5FF437F33C3EB0333DFF8DC
:104500008CE25A08AEFB0232C2F38F32604405EBF4
:10451000C00004F023FC337801333370FFF726BA70
:1045200094F95230072B1CD094F97030072B18D017
:1045300094F98E30072B14D094F9AC30072B10D09F
:1045400094F9CA30072B0CD094F9E830072B08D027
:1045500094F90631072B04D094F92431072B7FF40A
:1045600023AB884B884893F83810072308F086F867
:10457000FFF71ABB94F95230062B1CD094F9703017
:10458000062B18D094F98E30062B14D094F9AC3049
:10459000062B10D094F9CA30062B0CD094F9E830D1
:1045A000062B08D094F90631062B04D094F9243157
:1045B000062B7FF4F4AA734B551C93F83010724805
:1045C0000723EDB208F05AF82A46FFF7E8BA94F943
:1045D0005230012B1CD094F97030012B18D094F973
:1045E0008E30012B14D094F9AC30012B10D094F9FB
:1045F000CA30012B0CD094F9E830012B08D094F983
:104600000631012B04D094F92431012B7FF4AEAA9A
:104610005C4B551C197A5C480723EDB208F02EF864
:104620002A46FFF7A3BA94F95230B3B194F9703027
:104630009BB194F98E3083B194F9AC306BB194F99D
:10464000CA3053B194F9E8303BB194F9063123B143
:1046500094F92431002B7FF483AA4A4A0723117866
:104660004948012208F00AF80222FFF77ABA94F9C1
:104670005230052B1CD094F97030052B18D094F9CA
:104680008E30052B14D094F9AC30052B10D094F952
:10469000CA30052B0CD094F9E830052B08D094F9DA
:1046A0000631052B04D094F92431052B7FF472AA2E
:1046B000344B551C93F8281033480723EDB207F00C
:1046C000DDFF2A46FFF766BA94F95230042B1CD05E
:1046D00094F97030042B18D094F98E30042B14D038
:1046E00094F9AC30042B10D094F9CA30042B0CD0C0
:1046F00094F9E830042B08D094F90631042B04D047
:1047000094F92431042B7FF440AA1E4B551C93F8D6
:1047100020101D480723EDB207F0B0FF2A46FFF72F
:1047200034BA94F95230032B1CD094F97030032B17
:1047300018D094F98E30032B14D094F9AC30032B9D
:1047400010D094F9CA30032B0CD094F9E830032B25
:1047500008D094F90631032B04D094F92431032BAB
:104760007FF40EAA074B551C197E07480723EDB2AC
:1047700007F084FF2A46FFF703BA00BF1D0500209B
:10478000E80B0020180100200024014003000180F4
:1047900094F95230022B1CD094F97030022B18D0AF
:1047A00094F98E30022B14D094F9AC30022B10D037
:1047B00094F9CA30022B0CD094F9E830022B08D0BF
:1047C00094F90631022B04D094F92431022B7FF4A2
:1047D000D2A9AE4B551C197CAD480723EDB207F0AA
:1047E0004DFF2A46FFF7C7B994F8EE20482A7FF418
:1047F000A3AD4FF0FE0C44F60801A64EA64A33784E
:1048000003EB830305EBC30002EBC30380F80BC08B
:10481000998004F04BFB327894F9523001323270B7
:1048200094E594F8D020482A7FF481ADE1E794F82C
:10483000B220482A7FF476ADDBE794F89420482A2A
:104840007FF46BADD5E794F87620482A7FF460AD0D
:10485000CFE794F85820482A7FF455ADC9E794F87B
:10486000EE30362B7FF400AE05220EE694F8D03001
:10487000362B7FF4F4AD042207E694F8B230362BE1
:104880007FF4E8AD032200E694F89430362B7FF4F1
:10489000DCAD0222F9E594F87630362B7FF4D0AD0A
:1048A0000122F2E594F85830362B7FF4C4AD002293
:1048B000EBE594F8EE204B2A7FF4B0AD4FF0FE0C00
:1048C00044F60831734E744A337803EB830305EBE7
:1048D000C30002EBC30380F80BC0998004F0E6FA32
:1048E000327894F9523001323270A1E594F8D02038
:1048F0004B2A7FF48EADE1E794F8B2204B2A7FF487
:1049000083ADDBE794F894204B2A7FF478ADD5E7AC
:1049100094F876204B2A7FF46DADCFE794F85820B9
:104920004B2A7FF462ADC9E794F8EE204A2A7FF45F
:104930004FAD4FF0FE0C44F60821564E564A3378E0
:1049400003EB830305EBC30002EBC30380F80BC04A
:10495000998004F0ABFA327894F952300132327017
:1049600040E594F8D0204A2A7FF42DADE1E794F891
:10497000B2204A2A7FF422ADDBE794F894204A2A39
:104980007FF417ADD5E794F876204A2A7FF40CAD72
:10499000CFE794F858204A2A7FF401ADC9E794F88C
:1049A000EE20492A7FF4EEAC4FF0FE0C44F60811DD
:1049B000384E394A337803EB830305EBC30002EB2F
:1049C000C30380F80BC0998004F070FA327894F930
:1049D000523001323270DFE494F8D020492A7FF45B
:1049E000CCACE1E794F8B220492A7FF4C1ACDBE714
:1049F00094F89420492A7FF4B6ACD5E794F8762051
:104A0000492A7FF4ABACCFE794F85820492A7FF4C9
:104A1000A0ACC9E794F80C31362B7FF42AAD0622FE
:104A200033E594F82A21482A7FF490ACE1E694F823
:104A30000C21482A7FF485ACDBE694F82A214A2A27
:104A40007FF4D0AC75E794F80C214A2A7FF4C5AC0A
:104A50006FE794F82A21492A7FF49EACA4E794F8E2
:104A60000C21492A7FF493AC9EE794F82A214B2A23
:104A70007FF4DEAC22E794F80C214B2A7FF4D3AC10
:104A80001CE7002242E500212AE500BF18010020B2
:104A9000002401401D050020E80B00202DE9F84FFF
:104AA0004A4B1978002900F08F800822002317460E
:104AB000474C484D484E23606360A360E360474B1A
:104AC0001846DD6007F0F2FE0121444807F0D8FEE9
:104AD0000121304607F0A0FD0121304607F0C4FD5A
:104AE000022007F0E9FE0028FAD0022007F0F2FECB
:104AF0000021304607F090FD0021384807F0C0FE45
:104B0000B4F800B0B4F802902B886A88B4F8048036
:104B1000B4F806C0B4F808A0B5F808E05B444A440D
:104B2000B4F80AB0B5F80A90A988E888414460440E
:104B3000B4F80C80F244CB44B4F80EE0B5F80CC0E5
:104B4000B5F80E90C444CE4407F1FF389BB292B240
:104B500089B280B21FFA8AFA1FFA8BFB1FFA8CFC0B
:104B60001FFA8EFE18F0FF0723806280A180E0808C
:104B7000A4F808A0A4F80AB0A4F80CC0A4F80EE0A9
:104B800002D0124B19789AE79946904673466246CE
:104B90008E468446594650464FEAD9094FEAD8080E
:104BA0004FEADE0E4FEADC0CC008C908D208DB0869
:104BB000A4F80090A4F80280A4F804E0A4F806C0C9
:104BC00020816181A281E381BDE8F88F1C0500206E
:104BD000800A0020E808002000240140080002406C
:104BE0002DE9F04F80464FF000090746D34B99B0AE
:104BF000079310AB0093D24B0B93D24B0693D24B3F
:104C00000193C9EB091307EB430398F9526093F83A
:104C10005020002E4FEA121203F148034FEA091AFE
:104C2000C0F2B483BB1993F92030052B00F0BD8589
:104C30000B2B00F032860C2B00F0FC86A3F10D014B
:104C4000C9B2032940F26185112B00F0FC87122BB9
:104C500001F04880069BB3F90000AAEB090407EBBA
:104C60004404BA4B94F8442009EB890103EBC101D9
:104C70005209FEF735FD009B054618600D9003F0C4
:104C8000ABFB98F954C0AE46BCF1000F0C900490F9
:104C90000591C0F2988394F8592098F9561002F0C3
:104CA0000703A3F10500B0FA80F000294FEA501085
:104CB00009900DDB5209052A02D140F00403099343
:104CC000AAEB090307EB430393F8593003F00703FA
:104CD000A3F10303B3FA83F35B09029398F9553008
:104CE000002B0A930DDBAAEB090307EB430393F8B0
:104CF0005930C3F3C103032B03D1029B43F00203DA
:104D000002930029C0F26D83AAEB090307EB43036A
:104D100093F859305B09032B03D1029B43F0040342
:104D20000293BCF1000FC0F22083AAEB090307EB4A
:104D3000430393F8593003F00700A0F10402B2FADC
:104D400082F25B095209042B089202D142F004035B
:104D50000893AAEB090307EB430393F8592002F0E9
:104D60000702A2F10203B3FA83F35B0903930A9BE0
:104D7000002B0ADBAAEB090307EB430393F8593036
:104D8000C3F3C103022B00F0D28300290CDBAAEB92
:104D9000090307EB430393F859305B09022B03D156
:104DA000039B43F004030393644A09EB490302EBBA
:104DB000C3031E791D7B1C7DB3462A462046C6F3DD
:104DC0000016C5F30015C4F3001466F3410B65F338
:104DD000410264F34100BCF1000F83F804B01A7380
:104DE00018754FEA490B0ADB594C1D7904EBCC0CC2
:104DF0009CF80440C4F3001464F304151D710A9A6E
:104E0000002A0EDB524C0BEB090304EBC2021479AF
:104E10004A4AC4F3001402EBC3031D7B64F3041578
:104E20001D7300290EDB4A4C444A04EBC1010BEB15
:104E30000903097902EBC3031C7DC1F3001161F37F
:104E400004141C75099B002B40F03082089B029AC9
:104E5000134340F08181039B002B40F0C081019AF5
:104E60001368B3F5803FC0F2CC814FF6FF73136037
:104E70000D9B13F5004F08BF47F6FF7E01F0EA8057
:104E800047F6FF720099AAEB09030A6007EB430398
:104E900093F85130D90940F035829646B8F93E4032
:104EA000B8F94010B8F9422003F07F037245C0F210
:104EB0002883521A03FB02F071454FEAA02080F2CA
:104EC000D583AEEB0101884200F3D383091AC1EB0D
:104ED000C131121A91FBF2F109B208F13E00FEF75E
:104EE00087FBAAEB090307EB430393F85040054601
:104EF000C4F303040134E4B2102C2FD04FF6FE703B
:104F0000C4F11004E040FEF733F901461148FEF702
:104F100037FA034605F5FF457F3545FA04F01C4690
:104F2000FEF726F901462046FEF776F90A49FEF714
:104F300069F8FEF737FB05B210E000BF0809002052
:104F4000000A0020F0090020C8090020A00A002063
:104F5000C80D002000FE7F4700FEFF462846009A4D
:104F6000AAEB0903156007EB430393F84430990754
:104F700044BF6842106098F85A30642B3ED098F9CC
:104F80005420002A0ADBAAEB090107EB410191F842
:104F9000591001F00701012900F0428398F95510DA
:104FA00000290ADBAAEB090407EB440494F85940F2
:104FB000C4F3C105012D00F07D8398F95640002C03
:104FC00009DBAAEB090407EB440494F8594065098E
:104FD000012D00F03A84AAEB090207EB420292F895
:104FE0004420510740F17C8200FB03F0A94AC3171B
:104FF00082FB0020C3EB6010009B1860009B09F14E
:105000000109043300930B9BB9F1080F03F110035E
:105010000B93069B08F11E0803F102030693019B04
:1050200003F104030193079B03F1180307937FF433
:10503000E8ADB846002347F6FF7E974C9748984D59
:10504000984903EB430201EBC20212795900D206E0
:1050500000F115811A01934ECF1806EBC7073F7B6D
:10506000FE0607D5D71A08EB470797F8597017F0CF
:10507000180F19D08B4E194406EBC101097DC906E2
:1050800006D5D11A08EB410191F8591049090BD006
:10509000D11A08EB410191F859104F0727D011F0B0
:1050A000180F24D0490922D0D11A08EB410191F8F8
:1050B000447017F0180FC7F3C10C18D0BCF1020FE1
:1050C00000F07A84BCF1030F00F06884BCF1010F9A
:1050D00000F04E8410A951F82310B1F5004FC0F232
:1050E000978210A941F823E047F6FF7102E010A96A
:1050F00031F92310D21A08EB420220F8021F92F86D
:105100004420013312F0010200F0B380082B24F890
:10511000021F95D119B0BDE8F08F099B58071BD528
:10512000604A0BEB090302EBC3031B7DC3F3400191
:10513000C3F300138B4240F2AE814FF6FF710C9B1C
:10514000079A03F5FA73136198F85740019AB1FB77
:10515000F4F1136819441160089BD9070FD5514A1F
:105160000BEB090302EBC3031B79C3F34001C3F349
:1051700000138B4200F27F82002940F07D81089B62
:105180005A071AD5474A0BEB090302EBC3031B7DF1
:10519000C3F34001C3F300138B4240F28F810C9B99
:1051A00003F5FA70079B186198F857003E49019A79
:1051B00091FBF0F1136819441160029BDB073FD5A6
:1051C000384A0BEB090302EBC3031B79DE0637D524
:1051D0000023019A1360039B002B00F03787039B89
:1051E000DA0740F110812F4A0BEB090302EBC303EE
:1051F0001B79DB0640F107810D9B019A5B4213602E
:105200001368294A934280F21A87019B1A60244B43
:10521000009A9E461360AAEB090307EB430393F839
:105220005130DA096FD1B8F93E40B8F940107445F1
:10523000B8F9422003F07F037FF738AE18494CE6F7
:10524000029B9D0707D5174A0BEB090302EBC3032B
:105250001B7BDC06BCD4029B58077FF5FCAD114AD2
:105260000BEB090302EBC3031B7DD9067FF5F3ADFE
:10527000AEE7082B24F8022F7FF4E2AE4AE7C3EB37
:10528000031208EB420292F859701A017F073FF4AB
:105290000BAFE0E61F85EB518E0A0020F6080020D8
:1052A0000180FFFF080900200100FFFFDB077FF5F9
:1052B00034AFA14A0BEB090302EBC3031B79C3F321
:1052C0004001C3F300138B4240F2B7804FF6FF71E9
:1052D0000C9B019A03F5FA75079B1D6098F85740DF
:1052E0001368B1FBF4F10B441360089AD6077FF5FD
:1052F00046AF9249079A91FBF4F41560019A234452
:1053000013605AE79646069BB3F90030BEEB0301E3
:1053100048BFA3EB0E01AAEB090307EB430393F885
:10532000512002F07F0202EBC2038B4200F20C819B
:10533000B8F93E00B8F940207045B8F942303FF75F
:105340007DAF7345C0F2DD80724500F0928140F37D
:105350001284AEEB0001C1EBC131121A91FBF2F1E4
:10536000A1F5FF417F3909B2B7E50029C0F2CC8031
:10537000AAEB090307EB430393F8590040090428FB
:1053800000F08682002308930393F0E4B41C00F03D
:105390008B8303367FF45EAC694902EB420201EB7A
:1053A00082025068B0F5004FC0F2DA8347F6FF7012
:1053B0005060DB7ADB0840F06F85009B186000B21C
:1053C000069B188049E498F95610002905DB94F8EB
:1053D00059305B09052B00F0558200230993029395
:1053E0007CE4BCF1000FC0DBAAEB090307EB43032D
:1053F00093F8592002F00702A2F10403B3FA83F3F1
:105400005B090893ADE4039B9E0708D54A4A0BEB62
:10541000090302EBC3031B7BDD063FF5EDAE039BE7
:105420005C077FF51CAD444A0BEB090302EBC30399
:105430001B7DD8067FF513ADDEE600293FF46DAE87
:10544000DDE90445079A1368E41A65F10005332C79
:1054500075F10003FFF661AE4FF6FF710C9B136010
:1054600098F85740019AB1FBF4F113681944089B6E
:105470001160DC077FF583AEDDE90445079A136808
:10548000E41A65F10005332C75F10003FFF677AEE1
:105490000C9B136088E600293FF45EAEDDE904450D
:1054A000079A1369E41A65F10005332C75F10003BE
:1054B000FFF652AE4FF6FF710C9B44E600293FF415
:1054C0007CAEDDE90401079A1369C01A61F100019D
:1054D000332871F10003FFF670AE0C9B136163E695
:1054E00000F5FF407F3003FB00F0164AC31782FB34
:1054F0000020C3EB6010A0F5FF40009B7F381860D0
:105500007CE547F6FF71E8E40A9B002BC0F26F824E
:10551000AAEB090307EB430393F85930C3F3C10324
:10552000022B4FF00003039308937FF43DAC039BE1
:1055300043F00203039328E4080900200100FFFF61
:10554000D81500201F85EB510B9902EB4202B1F9EF
:105550000000B1F90250B1F9046002904319B1F9A9
:105560000600334403900344B1F90A00B1F908C0BE
:10557000044604906344B1F90C002344B1F90E10C1
:1055800003445B1848BF07330991A5EBE30101FB16
:1055900001F10FFA8EF408940C46029902FB02F214
:1055A000A1EBE30101FB01410C46A6EBE30101FB8A
:1055B00001440399A1EBE30101FB01410C46ACEB73
:1055C000E30101FB01440499A1EBE30101FB01416B
:1055D0000C46A0EBE30101FB0141099CA4EBE303B2
:1055E00003FB0313002BB8BF0733B2EBE30F80F2CA
:1055F00033810B9B0499089A99810399D881198169
:105600000299A3F80AC0DE809D8059801A808FE637
:10561000A942BBBF10AE294609B246F8235069E53E
:10562000CC490BEB090201EBC2021279D4063FF51B
:10563000D2AC98F95510002954DA98F95620002A6E
:10564000FFF6DCACC34ACB4402EBCB0B9BF8142037
:10565000D4067FF5D3ACAAEB090207EB420292F81D
:1056600059205209012A7FF4C9ACB4E40BDC40F0A4
:10567000B783002131E4019B0C9A98F857401B68CE
:1056800002F5FA7535E60A1B03FB02F3A1EB0E00E7
:10569000B0EBA32F4FEAA322EBDBAEEB04038A1A95
:1056A000141BC3EBC33191FBF4F1A1F5FF417F392A
:1056B00009B212E4002A08DAA6490BEB090201EB51
:1056C000C202127BD106B8D585E4A2490BEB0902D0
:1056D00001EBC2021279D20604D504F00704012CB2
:1056E0003FF479AC9B490BEB090201EBC202127B40
:1056F000D606A2D5AAEB090207EB420292F859207E
:10570000C2F3C102012A98D165E4934C94F90B309D
:10571000B34200F0F18394F93330B34200F0F083E8
:1057200094F95B30B34200F0EE8394F98330B342D6
:1057300000F0F68394F9AB30B34200F0F78394F9AC
:10574000D330B34200F0FA8394F9FB30B34200F057
:10575000FD8394F9233104F5A07004F58C74B342F1
:1057600008BF2046AAEB090507EB450595F853301D
:105770001146DB0805F1480540F0268203F000FEE3
:10578000009B1860B0F5805F80F21A82734BC0EB0B
:10579000C0304000A3FB0023C01A03EB5000C00A36
:1057A000A0F5FF407F3800B20AE66B4C94F90B205D
:1057B000B24200F09F8394F93320B24200F09E83FE
:1057C00094F95B20B24200F0A18394F98320B242A5
:1057D00000F0A48394F9AB20B24200F0A98394F9BD
:1057E000D320B24200F0AC8394F9FB30B34200F016
:1057F000AF8394F92331B3420CBF07260826AAEBE6
:10580000090207EB420292F85320D20840F0BD8112
:1058100006EB860604EBC604A27A514B33F812302D
:10582000009AB3F5805F136080F2CA81C3EBC33383
:105830004A4A5B00A2FB03129B1A02EB5303D80AED
:10584000A0F5FF407F3800B2BAE5002A80F2EB8174
:105850000029FFF6F7AE45E70B9A424BD08133F9AA
:105860000B0013460499A2F80AC091810399D680CF
:105870001181029995805180089A1A80009B1860C6
:10588000FFF779BB0423099300230293FFF726BA9D
:10589000002308900393FFF76ABA00232E4C0F935E
:1058A00094F90B30B34200F03E8394F93330B342A5
:1058B00000F0408394F95B30B34200F0438394F9E5
:1058C0008330B34200F0468394F9AB30B34200F02A
:1058D000FB8294F9D330B34200F0468394F9FB3055
:1058E000B34200F04C8394F9233104F5A070B34225
:1058F00004F58C730ABF1846082507250FA902F086
:1059000023FF05EB8505002840F0D78154F83520AA
:10591000AAEB0903013244F8352007EB430393F85F
:105920005300C00840F03D820F9C0F492046FDF710
:1059300073FC0F90FDF736FE642303FB00F00B4B66
:1059400083FB0023C017C0EB2320069B00B2188006
:10595000FFF783B908090020E00B002001011000C7
:10596000800A0020F808002000007A448D975F77B5
:1059700017F0040F91F8537018AE07F0070710A93D
:1059800006EB870751F8231057F8207C394400F0C4
:10599000448110AE46F82310FFF79FBB91F85310D7
:1059A00018AE01F0070106EB810151F8201C10AE82
:1059B00046F82310FFF791BB7E0740F1198191F85B
:1059C000531010AE56F8237001F0070118AE06EB25
:1059D000810151F8201C07EBD77701EBD17C7910BE
:1059E000A1EB6C0110AE46F82310FFF776BBB84A66
:1059F00009EB490302EBC3031D791C7B187DAB4601
:105A0000A44606460022C5F30015C4F30014C0F3F3
:105A1000001065F3410B64F3410C60F3410683F819
:105A200004B0039283F80CC01E7508924FEA490B2C
:105A3000FFF7E5B90023A74C0F9394F90B30B3425D
:105A400000F08C8294F93330B34200F0448294F930
:105A50005B30B34200F08F8294F98330B34200F0A0
:105A6000948294F9AB30B34200F0938294F9D3302E
:105A7000B34200F0988294F9FB30B34200F0968272
:105A800094F9233104F5A070B34204F58C730ABF76
:105A90001846082507250FA902F0ECFF002840F062
:105AA0009A8105EB850531E78A4C98F85830617B7F
:105AB000994200F00D8294F83510994200F051821D
:105AC00094F85D10994200F0538294F88510994241
:105AD00000F0588294F8AD10994200F05E8294F87C
:105AE000D510994200F05C8294F8FD10994200F0C4
:105AF000608294F8251199420BBF4FF48C704FF4DB
:105B0000A0700723082303EB830304EBC3031B7B71
:105B1000082B00F08981092B7FF49CA8AAEB0903CC
:105B200007EB430393F8532003F14805D3082044BF
:105B300000F0BF8103F014F96FF0A902EB7ADB08E3
:105B400002FB03000028C0F2CA81B0F5805F80F23A
:105B50003982009B1860C0EBC0305F4A430069E6A1
:105B60005E49884280F27B825160DB7ADB0840F03C
:105B70004D81084621E4AEEB0201C1EBC1319B1A15
:105B800091FBF3F109B2FFF7A8B96FF0A90306EB97
:105B9000860604EBC604A07A514931F8101003FBC5
:105BA0000213002BC0F26781B3F5805FC0F2288139
:105BB000A3F6FF73009AB3F5805F1360FFF636AE6D
:105BC00047F6FF70FFF7FCBB03F0DAFB6FF0A902AA
:105BD000EB7ADB0802FB03000028C0F25681B0F527
:105BE000805FC0F21081009BA0F6FF701860C9E5CD
:105BF00091F8537018AE07F0070706EB870710A956
:105C000051F8231057F8207C10AEC91BA1F5FF41B5
:105C10007F3946F82310FFF760BA714410AE46F89A
:105C20002310FFF75ABA2A4D0BEB090205EBC2020B
:105C30001279D2067FF5FFAC04F00704012C7FF443
:105C4000FAACFFF7C8B90025224CADF83A5094F9E8
:105C50000B30B34200F0B08194F93330B34200F01E
:105C6000AD8194F95B30B34200F0B18194F9833097
:105C7000B34200F0B08194F9AB30B34200F0CD8173
:105C800094F9D330B34200F0C18194F9FB30B342B0
:105C900000F0C68194F9233104F5A071B34204F5F4
:105CA0008C730ABF1946082507250DF13A0003F049
:105CB000FDFA05EB850500284ED004EBC5046368AA
:105CC000069A0133B2F900006360FEF7C6BF00BF59
:105CD00008090020E00B0020010110000180FFFFF7
:105CE000800A00200025BE4CADF83A5094F90B30E4
:105CF000B34200F0738194F93330B34200F08981EC
:105D000094F95B30B34200F08E8194F98330B34252
:105D100000F08C8194F9AB30B34200F08A8194F9A1
:105D2000D330B34200F0888194F9FB30B34200F0E5
:105D3000DE8094F9233104F5A071B34204F58C732D
:105D40000ABF1946082507250DF13A0003F024F88B
:105D500005EB85050028B0D154F83520AAEB0903DE
:105D6000013244F8352007EB430393F85330DB0846
:105D70003AD0C3EB831203EB820203EB8203BDF83C
:105D80003A20C3EB431302EB430318B210F5004F64
:105D90009BB27FF415AB013B18B2069B1880FEF74F
:105DA0005CBFC0EB0010FDF7E3F901460F98FDF76B
:105DB00029F98C490446FDF7CDFBD8B920468A491C
:105DC000FDF7E6FB00283FF4B0AD20468749FDF71C
:105DD00019F90446A9E505EB850304EBC3046EE756
:105DE000AEEB0101FFF772B8BDF93A00069B1880CF
:105DF000FEF733BF20467D49FDF706F9044694E5DA
:105E0000009A136012E5009B1860BFE46FF0A900D0
:105E100000FB03F0A0F5FF407F38009B00F5FF403A
:105E20007F301860FFF7CBBAAAEB090507EB4505F1
:105E300095F853301146DB0805F14805204431D070
:105E400003F050F8EB7A6A4ADB0802FB03000028F3
:105E50005EDB009B1860C0EBC030664A4300A2FBCB
:105E600003129B1A02EB5303980BA0F5FF407F38F7
:105E700000B2FFF7A5BA03F6FF73009A002B136078
:105E8000BFF6D4AC5C48FFF79BBA00F6FF70009BEE
:105E900000281860F6DB79E46FF0A90202FB03002A
:105EA000FFF78BBA03F01EF8009B18600028E9DBAF
:105EB000D1E702F055FF009B00281860E2DBB0F547
:105EC000805FBFF67DAE46E6042504F1A00015E52F
:105ED0000020034617E6012504F12800DBE500F663
:105EE000FF70009B00281860BFF635AECAE7062594
:105EF000424929E7002682E4204633E401267EE475
:105F000004F128002EE404F150002BE4022676E48C
:105F1000009B00F5FF407F301860C7E703266EE462
:105F200004F178001EE420460025E7E4344819E433
:105F3000042664E4012504F12800DFE4314811E47B
:105F40001E465CE4022504F15000D7E42B4809E426
:105F5000062654E4032504F17800CFE4204600250A
:105F600099E528200123CEE5052504F1C800C5E404
:105F700050200223C7E5022504F150008BE50625D9
:105F80001E48BBE478200323BDE5032504F1780017
:105F900081E5042504F1A0007DE5A0200423B2E5FD
:105FA000C8200523AFE50525164874E506251348E6
:105FB00071E5F0200623A6E5214676E6012504F1E9
:105FC000280172E6009BA0F6FF70186077E70225B3
:105FD00004F1500169E603250B4966E62146B3E664
:105FE000E00B0020000034C3000034430000B44341
:105FF00056F5FFFF050002000180FFFFD00C0020D6
:10600000800C0020A80C0020580C002005251C49FD
:106010004BE6012504F1280196E60425194944E6DA
:106020000625194941E6022518498DE60325184938
:106030008AE60425134987E60525114984E60D9A69
:106040001A44B2F5004F9646BEF61AAF1EF5004F41
:106050007FF7DDA8009BC3F800E0FFF7DCB81E2344
:1060600003FB097393F85320D2083FF4A6A96FF0FD
:10607000A90303FB02000028BFF69FA9CDE600BFDD
:10608000A80C0020800C0020D00C0020300C002038
:10609000580C002070B441B10E4B1E685D689C68BE
:1060A000DB680E604D608C60CB608AB10A490B4B97
:1060B0008C680E684D68C968166055609460D16040
:1060C0001C6859689A68DB68046041608260C3603C
:1060D00070BC7047F8080020F0090020900A0020EA
:1060E000F0B5164600220C4685B0694607461046B4
:1060F000FFF7D0FF2146684647F6FF7C04F1700E9B
:1061000005E00E318E4500F1020000F00D8191F89E
:10611000C332002BF5D00022347850E0AB4262D875
:1061200012F0FF0F77D091F8B852C5EB0545AB429E
:1061300073D891F8B952C5EB0545AB4262D891F8D6
:10614000BA52C5EB0545AB4276D891F8BB52C5EBC8
:106150000545AB4200F2AA8091F8BC52C5EB05455B
:10616000AB4278D891F8BD52C5EB0545AB4200F281
:10617000AD8091F8BE52C5EB0545AB427AD891F897
:10618000BF52C5EB0545AB4200F2B08091F8C0525A
:10619000C5EB0545AB427CD891F8C152C5EB05452E
:1061A000AB4200F2B380002525703478013201340F
:1061B000E4B2347091F8C352D3B29D42A1D9230600
:1061C0009FD4B0F9003091F8B6526344C5EB054551
:1061D000C3EB03239D4291F8B7523C44C5EB054500
:1061E0009CD9AB429FD991F8B852C5EB0545AB425B
:1061F00013D8D5B2012DD7D091F8B952C5EB0545CA
:10620000AB429CD991F8BA52C5EB0545AB4213D8C5
:10621000D5B2032D99D10125C6E791F8B952C5EB46
:106220000545AB42EED8D5B2022DF4D091F8BA5262
:10623000C5EB0545AB4288D991F8BB52C5EB054586
:10624000AB4233D8D5B2042DE5D091F8BC52C5EBA2
:106250000545AB4286D991F8BD52C5EB0545AB4229
:1062600034D8D5B2062DD6D091F8BE52C5EB05452F
:10627000AB4284D991F8BF52C5EB0545AB4235D846
:10628000D5B2082DC7D091F8C052C5EB0545AB4239
:1062900082D991F8C152C5EB0545AB4236D8D5B28B
:1062A000A5F10A05B5FA85F56D097DE791F8BC52AF
:1062B000C5EB0545AB42CED8D5B2052DABD091F894
:1062C000BD52C5EB0545AB427FF653AF91F8BE52C8
:1062D000C5EB0545AB42CDD8D5B2072D9BD091F883
:1062E000BF52C5EB0545AB427FF650AF91F8C052A7
:1062F000C5EB0545AB42CCD8D5B2092D8BD091F872
:10630000C152C5EB0545AB427FF64DAF91F8C25285
:10631000C5EB0545AB423FF646AFD5B2A5F10B053F
:10632000B5FA85F56D093FE705B0F0BD30B403EB74
:106330004304144494F830515C006D09022D42D09E
:10634000032D3DD0012D35D064252344134493F80B
:106350003031C3F38203022B29D0032B24D0012B2D
:106360001FD00024037903F06002202A0DD0402AB8
:1063700001D030BC704702682544891AA94284BF05
:106380006FF34613037130BC70470268891AA1424B
:10639000EFD92544A942ECD2022262F346130371DD
:1063A000E7E7B2F8AE42DDE7B2F8B242DAE7B2F8B8
:1063B000B042D7E7B2F8AE52002D08BF6425C4E75B
:1063C000B2F8B252F8E7B2F8B052F5E72DE9F84367
:1063D00015460C46064601F0FFFF2B4601462246B5
:1063E00007463046FFF7A2FF05EB4503234493F829
:1063F0002F21690002F01F021E2A41D8DFE812F0A7
:10640000AC007F012601C30010014200420042009F
:106410004200AC009B009B009B009B00AC009E00D8
:106420009E009E009E0098009800980098004000F2
:106430004000A100A100A100A100D3003B01BCF1DC
:10644000000F1DD0002302E00133802B18D096F9F5
:106450002E2103368242F7D103EB4302224492F805
:106460002F2102F01F021D2AEED1D74A42F83370C5
:1064700002EBC3031A7922F06C0242F024021A7173
:10648000BDE8F8830023D149307900F06005202D64
:1064900018D0402D00F0838100F00105C0F3400CBE
:1064A000AC4580F083814FF0010C6CF3461065F32E
:1064B0008200054680F00400C0F3800060F3C3054D
:1064C00037603571132A40F2408102F01B0010281A
:1064D00000F0B881072A00F0E1810C2A00F0DE818B
:1064E000112800F0DB810A7802F0FE000870327992
:1064F000C2F3001202430A70002AC1D0002B40F000
:1065000033811E46B04D03EB4300204490F82F0129
:1065100000F01F00092807D105EBC3010A7922F01A
:106520007D020A7145F833600133802BEBD1A7E778
:106530000323A749A8E70123A649A5E70223A64903
:10654000A2E7337903F06001202999D0402900F0B7
:106550005181DA0794D587E0337903F06002202A6D
:106560008ED0402A00F0E98003F00102C3F340011D
:10657000914280F07681012161F3461362F3820338
:10658000376033717CE7337903F06002202A3FF4EF
:1065900077AF402A00F0D18003F00102C3F340013D
:1065A0008A424CD960E0337903F06002202A3FF43C
:1065B00067AF402A00F0C18003F00102C3F340033B
:1065C0009A427FF65DAF00232944214426469C462B
:1065D000224691F92E017C4D05E00133802B02F11A
:1065E00003023FF42CAF92F92E118142F5D103EB57
:1065F0004301214491F82F1101F01F011D29ECD115
:1066000005EBC30E9EF804104FEAC30911F0040F06
:10661000C1F3800840F0E480BCF1000FDDD064E0FD
:10662000337903F06002202A3FF42AAF402A00F0B9
:10663000848003F00102C3F340018A4214D31A4656
:10664000C3F3C00363F30412327119E7337903F023
:106650006002202A3FF414AF402A6ED003F00102FA
:10666000C3F340018A42EAD023F06C0343F02403D1
:106670003371376004E7337903F06002202A3FF476
:10668000FFAE402A59D003F00102C3F3400082421A
:1066900040F2E38000232944214426469C462246BA
:1066A00091F92E01484D05E00133802B02F10302E0
:1066B00000F0DB8092F92E118142F5D103EB43010A
:1066C000214491F82F1101F01F011E29ECD105EB97
:1066D000C30E9EF804104FEAC30911F0040FC1F372
:1066E000800867D1BCF1000FDED045F833704D440F
:1066F0002B7923F06C0343F024032B71C0E633792C
:1067000003F06002202A3FF4BBAE402A15D003F00C
:106710000102C3F340018A427FF6B2AE012262F366
:1067200046131A4683F01003C3F3001363F3820287
:1067300063F3C30237603271A2E61A46C3F38003E3
:1067400063F304123271BDE8F8832448D040C007D7
:1067500073D50A7802F0F7020A703079C0F300109E
:1067600042EAC0020A70C7E6012B7FF489AE00231B
:106770001D46154803EB4302224492F82F2102F0F4
:106780001F020E2A07D100EBC3010A7922F07D0215
:106790000A7140F833500133802BEBD170E6054687
:1067A000C0F3800060F3041535718BE665F30410C7
:1067B000307187E611F0600F21F00C0192D1C446D0
:1067C0008EF8041070E700BFC80D0020200D0020D7
:1067D000230D0020210D0020220D00202084080020
:1067E00011F0600F21F01C017FF416AFC4468EF843
:1067F0000410F2E61846C3F3800363F3041000218B
:106800002C4F307103E0013180293FF439AE01EBA8
:106810004103234493F82F3103F01F039342F2D135
:10682000CBB29D4207EBC100EDD003791E46C3F306
:10683000C00363F304160671E5E7062A02D00B2AAB
:106840007FF443AE0A7802F0FB020A703079C0F39D
:10685000001042EA80020A704EE6DA077FF5EFAEDA
:106860000EE662F3041333710AE6BCF1000F3FF445
:1068700007AE002303E00133802B3FF401AE96F90D
:106880002E2103368242F6D103EB4302224492F8D2
:106890002F2102F01F021E2AEDD1E6E50A7802F050
:1068A000FD020A703079C0F3001042EA40020A701B
:1068B00022E600BFC80D00202DE9F843804601F014
:1068C0008BFD404A404B92F800C093F800E0F4453D
:1068D00044D000223D4D3E4E26E09E4527D3B8F8D9
:1068E000B47206EBC20494F8049015F8011F4B46ED
:1068F00001F0010169F3410361F300035FFA83F9D9
:1069000013F0080F2371C9F3400313D08B4223689F
:10691000A0EB03031AD0BB4284BF6FF3C30984F812
:1069200004900132802A0FD0D3B29C45D5D3B8F859
:106930001C70D6E78B42F4D0013249F00809802A56
:1069400084F804902060EFD1BDE8F883BB42E8D919
:1069500009F0F70369F382032371E2E70025B8F831
:106960001CE01A4F1A4E0BE09045236821D0C31A41
:10697000734502D96FF3C30121710135802DE3D036
:1069800006EBC504217917F8012F0B4602F001022E
:1069900061F3410362F30003D9B223711B07C1F312
:1069A0004008E1D49045E8D041F008012171206011
:1069B000E3E7C31A01F0F7029E4561F38202DCD2DD
:1069C0002271DAE71E0500201F050020230D00209C
:1069D000D8110020192130B40F4D002302E00133FB
:1069E000802B13D003EB4302024492F82F2102F0D4
:1069F0001F028A42F3D1012405EBC3031A7922F066
:106A00000C0242F0040264F304121A7101311D29D0
:106A1000E3D130BC704700BFC80D002070B4002423
:106A20001F4E00F59775002302E00133802B13D031
:106A300003EB4301421892F82F2102F01F021D2A96
:106A4000F3D16A56A242F0D106EBC3031A7922F0C1
:106A5000140242F014021A710134802CE3D17F2415
:106A60000F4E00F597757F2301E0013B11D303EB37
:106A70004301421892F82F2102F01F021E2AF4D17E
:106A80006A56A242F1D006EBC3031A7942F004021F
:106A90001A71013C64B2631CE5D170BC704700BF41
:106AA000C80D00202DE9F04FDFF8A08083B001F180
:106AB0001F061746CDE9000601F13D0B08F1F40968
:106AC00003E05E4508F108083AD016F9012F032AC1
:106AD000F7D197F90020002AF3DB0022B8F8041060
:106AE000D8F8000006F0B0F9174C019D02E0083418
:106AF000A1451AD015F9012F042AF8D197F90010F1
:106B000097F800A00029F2DB218854F8040C06F065
:106B100095F9B0FA80F0009B400903F80A003A7832
:106B200008340132A1453A70E4D1B8F80410D8F81D
:106B30000000012206F088F95E4508F10808C4D17A
:106B400003B0BDE8F08F00BF900100208C01002051
:106B50002DE9F0410E460446002382B001460DF1B6
:106B6000070230468DF80730FFF79CFF214630467C
:106B70000DF1070202F076FF1D4B9DF807502146EC
:106B800030460DF107021D70FFF7AAFA194D9DF866
:106B90000700194B1F34187005F1F00702E00835A3
:106BA000BD421ED014F9012F531EDBB2012BF6D8C3
:106BB00010F0800F06EB000813D1022AA98828687C
:106BC00012D006F03BF9B0FA80F040099DF807308A
:106BD00088F800000835581CC0B2BD428DF8070087
:106BE000E0D102B0BDE8F08106F028F9EEE700BF81
:106BF0001E0500208C0100201F0500202DE9F04F0C
:106C000000268246DFF87C93DFF8648383B09AF92C
:106C10003633002B10DA9AF93733002B0CDA9AF955
:106C20003833002B08DA9AF93933002B04DA9AF951
:106C30003A33002BC0F26C810024CC4BA34603EB0B
:106C4000C60355461F46CDF804A004E00134802C4D
:106C500005F103052BD095F92E31E2B2B342F5D1FF
:106C600004EB4403534493F82F315B09EED09B4669
:106C700099F800300BF1FF3C43FA0CF308EBC40029
:106C800013F0010390F804C040F0F5801CF0100FE1
:106C9000DCD02CF07D0C80F804C0514648F834302C
:106CA0000134FFF793FB802C05F10305D3D1019F3D
:106CB000BBF1000F00F02C81AC4B002403EBC605A8
:106CC00004E00134802C07F1030730D097F92E310E
:106CD000E2B2B342F5D199F80030002B40F0DB80EE
:106CE00004EB4401514491F82F11490900F0FE8052
:106CF000190701D4DB06E4D504EB4403534493F8AD
:106D00002F315B09DDD108EBC400017911F0100FC0
:106D1000D7D021F07D0C80F804C0514648F83430BB
:106D20000134FFF753FB802C07F10307CED1013666
:106D3000802E7FF46CAF00209AF9362389F800008A
:106D40008242C0F232810120894B03EBC2031A79DF
:106D5000C2F300129AF93743002C08DB0120844B60
:106D600003EBC4031B79C3F3001342EA43029AF90D
:106D70003843002C08DB01207D4B03EBC4031B7957
:106D8000C3F3001342EA83029AF93953002DC0F28B
:106D90000E81774B9AF93A4303EBC5052879002C0D
:106DA000C0F3001042EAC00205DB03EBC4031B7909
:106DB00003F010031A4389F8002000254FF0805893
:106DC0006C4F6D4E6D49DFF8B8E12B46CEF88080F0
:106DD0002A462C462846DFF898B10D604D608D603C
:106DE000CD603D607D60BD60FD6035607560B56003
:106DF000F5600AF5977934E019F90CC0BCF1000F81
:106E000037DBED0700F1A7800BEBC2052D7904F00D
:106E1000070EC5F3001559494FEAD40C17F80C803A
:106E200005FA0EF511F80CE06DB245EA0E0E0134CC
:106E300045EA080507F80C5001F80CE0D500E4B26B
:106E40004A4902F0070C0D442D790132C5F3800543
:106E500005FA0CF52B43802A335400F09580D010AE
:106E6000335C02EB420C0AEB0C0595F83051A90794
:106E7000C2D5D500E4E73B79CCF3000EC3F3800321
:106E80002CF0030C43EA4E0343EA0C035146037112
:106E9000FFF79CFADAE6D80707D504EB4401514422
:106EA00091F82F115FEA511C09D099071AD504EB0C
:106EB0004401514491F82F115FEA511C0ED108EBA7
:106EC000C4000379D9067FF5FCAE23F07D0303717E
:106ED000514648F834C0FFF779FAF2E619073FF552
:106EE000F0AE07E758077FF503AFE0E708EBC40013
:106EF00001792B79C1F3000CC3F3800321F0030166
:106F000043EA4C030B4303715146FFF75FFAD8E69F
:106F1000164B5546002403EBC60703E00134802CD2
:106F20003FF405AF95F92E31E2B2B34205F1030506
:106F3000F4D108EBC40001793B79C1F3000CC3F331
:106F4000800321F0030143EA4C030B4303715146D4
:106F5000FFF73CFAE2E70BEBC2052D7904F0070ED0
:106F6000C5F3001585F0010555E700BFD8110020D5
:106F7000C80D0020A40D0020C8110020B40D002071
:106F800000E100E0200500204FF08051644B654A8D
:106F900019601378013B0B2B39D8DFE803F03C4034
:106FA0004448384C3850543838140246D2E69AF9DE
:106FB0003A43002C16DB5C4B03EBC4031B7903F054
:106FC00010031A43F7E60121584B19705178013923
:106FD0000B2945D8DFE801F0413E3B4A4447444D88
:106FE0001844440A00283FF4E8AEE4E60121597051
:106FF000917801390B2959D8DFE801F055524F5EDD
:10700000585B58614C58583E07215970F0E7FF21F2
:10701000464B1970DAE70621444B1970D6E7042174
:10702000424B1970D2E70521404B1970CEE702217F
:107030003E4B1970CAE703213C4B1970C6E700218B
:107040003A4B1970C2E70721384B1970BEE705218A
:107050005970CDE704215970CAE706215970C7E776
:10706000FF215970C4E703215970C1E7022159700B
:10707000BEE700215970BBE701219970D278013A2F
:107080000B2A47D8DFE802F0413C3732462D46282C
:107090002346461E07219970F0E705219970EDE718
:1070A00004219970EAE706219970E7E7FF219970BA
:1070B000E4E703219970E1E702219970DEE70021FE
:1070C0009970DBE70122DA7003B0BDE8F08F072288
:1070D000DA7003B0BDE8F08F0022DA7003B0BDE8CB
:1070E000F08F0322DA7003B0BDE8F08F0222DA706D
:1070F00003B0BDE8F08F0522DA7003B0BDE8F08F71
:107100000422DA7003B0BDE8F08F0622DA7003B013
:10711000BDE8F08FFF22DA7003B0BDE8F08F00BF4A
:1071200000E100E0200D0020C80D0020C40D00206B
:10713000F0B440B1114C27686668A568E468076040
:1071400046608560C46041B10D4806684568846842
:10715000C0680E604D608C60C86042B109490D681E
:107160004C688868C968156054609060D16013B13C
:10717000054A12781A70F0BC704700BFB40D0020A9
:10718000A40D0020C81100202005002010B1024BE2
:107190001B680360704700BFC40D00202DE9F04F4D
:1071A000DFF81CA1AFB09AF909300C46002B019012
:1071B00008DB9AF90A30002B04DB404B9B8C1BB296
:1071C000CAF804309AF91530002B03DB9AF916300F
:1071D000002B77DA9AF92130002B03DB9AF9223061
:1071E000002B6FDA9AF92D30002B03DB9AF92E3041
:1071F000002B67DA9AF93930002B03DB9AF93A3021
:10720000002B5FDA9AF94530002B03DB9AF9463000
:10721000002B57DA9AF95130002B03DB9AF95230E0
:10722000002B4FDA9AF95D30002B03DB9AF95E30C0
:10723000002B47DA9AF96930002B03DB9AF96A30A0
:10724000002B3FDA9AF97530002B03DB9AF9763080
:10725000002B37DA9AF98130002B03DB9AF9823060
:10726000002B2FDA9AF98D30002B03DB9AF98E3040
:10727000002B27DA9AF99930002B03DB9AF99A3020
:10728000002B1FDA9AF9A530002B03DB9AF9A63000
:10729000002B17DA9AF9B130002B03DB9AF9B230E0
:1072A000002B0FDA9AF9BD30002B03DB9AF9BE30C0
:1072B000002B07DA2FB0BDE8F08F00BF002C014093
:1072C000D81500204FF0FF330025CDE92733CDE955
:1072D0002B3326932A9329932D9301F07DF8994B14
:1072E00000902E469A461846974A03F1C00792F836
:1072F000008090F9092002EB4202A11891F82F2199
:10730000520902F1FF3248FA02F209D0D20707D53A
:1073100091F82E112EAA3244013602F8201CF6B242
:1073200090F90A200C3002EB4202A11891F82F21AB
:10733000520902F1FF3248FA02F209D0D20707D50A
:1073400091F82E112EAA2A44013502F8101CEDB234
:107350008742CED19DF9A82001200F929DF9A92046
:1073600010929DF9AA2016929DF9AB2017929DF9D3
:10737000AC2018929DF9AD2019929DF9AE201A9279
:107380009DF9AF201D929DF9B0201E929DF9B1206C
:107390001F929DF9B22020929DF9B32021929DF970
:1073A000B42022929DF9B52023929DF9B620249213
:1073B0009DF9B72025929DF9982006929DF9992074
:1073C00007929DF99A2008929DF99B2009929DF9B8
:1073D0009C200A929DF99D200B929DF99E200C9273
:1073E0009DF99F200D929DF9A0200E929DF9A1205C
:1073F00011929DF9A22012929DF9A32013929DF95A
:10740000A42014929DF9A52015929DF9A6201B9207
:107410009DF9A7201C9204F55E720392CDE904A8A1
:1074200093F915100029C0F2E88093F91650002D49
:10743000C0F2E3801A7D01EB41069200D2B22644ED
:107440001A7596F92EE1414F4E0017F80E7002960C
:1074500017B142F001021A7505EB4507274497F969
:107460002E813A4F4FEA450C17F8087017B142F0D9
:1074700002021A7582EA9207BE074FEA920900F0EB
:10748000C580039F3F5C012F00F0DB80022F02F0DC
:107490000F0700F0DC802E4E16F90790B9F1000FAF
:1074A0007BD040F33C81049E00EB400B06EB8B0B42
:1074B00001269BF80B7000FA06FA66F303078BF8B7
:1074C0000B70DF68009E0BF1080BF71B322F40F2A8
:1074D000C2804A000A44224492F82F21520939D12D
:1074E000069A964543D0079A964540D0089A964505
:1074F0003DD0099A96453AD00A9A964537D00B9ACC
:10750000964534D00C9A964531D00D9A96452ED09A
:107510000E9A96452BD0119A964528D0129A9645E8
:1075200025D0139A964522D0149A96451FD0159AC5
:1075300096451CD01B9A964519D01C9A96450FD19A
:1075400015E000BFD815002020050020240D0020E4
:1075500058010020059E013A46FA02F2D20706D5EC
:10756000019A02EBC1073A7942F010023A71012602
:10757000049A824402EB8A0A9AF80B2066F30712F7
:107580008AF80B201A69009E4A44B2F5004FDE606B
:10759000C0F2818147F6FF721A614A000A4416461A
:1075A000264496F830215209022A35D0032A45D0C4
:1075B000012A40D094F81EE0AC44A4449CF8302149
:1075C0005209022A31D0032A32D0012A21D0A77FC2
:1075D000DA68009EB21A724506D9019E06EBC10117
:1075E0000E796FF304160E71BA4206D9019A02EBB6
:1075F000C5052A796FF304122A710130102803F1AE
:107600000C037FF40DAF2FB0BDE8F08F83F814901A
:10761000C3E7B4F8AE72DBE7AC44A4449CF8302175
:10762000B4F8B0E25209022ACDD1B4F8B072CFE773
:10763000B4F8B272CCE7B4F8AEE2BDE7B4F8B2E2A7
:10764000BAE7A04E02F00F0716F9079026E79E4E04
:1076500016F9079022E79BF803B04BF3031B4FFA90
:107660008BFBBBF1010F3FF434AF1F6992001A7519
:10767000009A5F44BBF1000FC3E9032740F3BC80CD
:107680004A000A44224492F82F21520940F009810D
:10769000069A964581D0079A96453FF47EAF089AA0
:1076A00096453FF47AAF099A96453FF476AF0A9A29
:1076B00096453FF472AF0B9A96453FF46EAF0C9A25
:1076C00096453FF46AAF0D9A96453FF466AF0E9A21
:1076D00096453FF462AF119A96453FF45EAF129A19
:1076E00096453FF45AAF139A96453FF456AF149A15
:1076F00096453FF452AF159A96453FF44EAF1B9A0C
:1077000096453FF44AAF1C9A96453FF446AF019A1E
:1077100002EBC1073A7942F010023A713DE7049E4C
:1077200000EB400B06EB8B0B9BF80B700BF1080B7F
:1077300047F00F078BF80370DF68009E4FEA400A9E
:10774000F71B322F08D89BF803B04BF3031B4FFAFB
:107750008BFBBBF1FF3F88D10CEB0502224492F872
:107760002F21520930D10F9A90453AD0109A904566
:1077700037D0169A904534D0179A904531D0189A40
:1077800090452ED0199A90452BD01A9A904528D022
:107790001D9A904525D01E9A904522D01F9A90455B
:1077A0001FD0209A90451CD0219A904519D0229A3A
:1077B000904516D0239A904513D0249A904510D026
:1077C000259A904506D10CE0059E013A46FA02F250
:1077D000D70706D5019A02EBC5073A7942F01002A5
:1077E0003A71049A824402EB8A0A9AF80B2042F01A
:1077F000F0028AF80B20C5E60CEB0502224492F851
:107800002F21520955D10F9A90453FF4C6AE109AD8
:1078100090453FF4C2AE169A90453FF4BEAE179A1B
:1078200090453FF4BAAE189A90453FF4B6AE199A17
:1078300090453FF4B2AE1A9A90453FF4AEAE1D9A11
:1078400090453FF4AAAE1E9A90453FF4A6AE1F9A0B
:1078500090453FF4A2AE209A90453FF49EAE219A07
:1078600090453FF49AAE229A90453FF496AE239A03
:1078700090453FF492AE249A90453FF48EAE259AFF
:1078800090453FF48AAE019A02EBC5073A7942F07F
:1078900010023A7181E60D4EB242B8BF32461A610B
:1078A0007BE6059E013A46FA02F2D6077FF575AEF1
:1078B0002DE7059E013A46FA02F2D2077FF56DAE3A
:1078C000E1E700BF68010020780100200180FFFF90
:1078D00000234FF47F41FF22F0B5044640F20660DA
:1078E0005E4D89B02B60EB60AB616B622B63EB6329
:1078F000AB646B652B662981A9822984A9852987B8
:10790000A5F84410A5F85010A5F85C10A5F868106B
:10791000A5F87410A5F88010AA72AA7585F822201F
:1079200085F82E2085F83A2085F8462085F85220E3
:1079300085F85E2085F86A2085F8762085F8822013
:10794000EB66AB67A5F88C1085F88E20C5F88430FF
:10795000A5F8981085F89A20C5F89030A5F8A410DD
:1079600085F8A620C5F89C30A5F8B01085F8B2209F
:10797000C5F8A830A5F8BC1085F8BE20C5F8B4300D
:10798000B4F9283083423CD04FF0FF37002338460B
:1079900001264FF0110EDFF8CCC002E00133802B3E
:1079A0002DD003EB4302224492F82F2102F01F0254
:1079B000172AF3D19842F1DA0F2EEFD8002202E015
:1079C0000132802AEAD002EB4201214491F82F11C2
:1079D00001F01F011829F3D19742F1DA06EB4601B5
:1079E00058B2013357B2013605EB8102802B0CEB04
:1079F000810197725072F6B281F803E0D1D109B0DB
:107A0000F0BD0822092303A86A72AB7205F05EFA82
:107A100001214FF4006005F0ADFA4FF6FF734FF40B
:107A2000801269460E48CDE9002305F023FC94F846
:107A30007833022B0CD0022301211A46084805F0A6
:107A40005DFD002306480121838405F02FFD9BE79F
:107A50001A460321024805F051FDF2E7D81500202F
:107A6000002C0140E0150020B0B170B5054604F0CF
:107A700053FF0A4804F064FF094E2C1F761B05F5DE
:107A80006175301954F8041F04F0C2FFAC42F8D1FC
:107A9000BDE8704004F04CBF704700BF00FC000818
:107AA00004FC000860B110B4064C031F241A00F552
:107AB0006171E25843F8042F9942FAD110BC704723
:107AC000704700BF04FC00082DE9F041044694F81B
:107AD0004420002002F001010A467B4D94F86230F8
